{
  "_format": "hh-sol-artifact-1",
  "contractName": "FunctionsConsumer",
  "sourceName": "contracts/FunctionsConsumer.sol",
  "abi": [
    {
      "inputs": [
        {
          "internalType": "address",
          "name": "oracle",
          "type": "address"
        }
      ],
      "stateMutability": "nonpayable",
      "type": "constructor"
    },
    {
      "inputs": [],
      "name": "EmptyArgs",
      "type": "error"
    },
    {
      "inputs": [],
      "name": "EmptySecrets",
      "type": "error"
    },
    {
      "inputs": [],
      "name": "EmptySource",
      "type": "error"
    },
    {
      "inputs": [],
      "name": "MISSING_ARGS",
      "type": "error"
    },
    {
      "inputs": [],
      "name": "RequestIsAlreadyPending",
      "type": "error"
    },
    {
      "inputs": [],
      "name": "RequestIsNotPending",
      "type": "error"
    },
    {
      "inputs": [],
      "name": "SenderIsNotRegistry",
      "type": "error"
    },
    {
      "inputs": [
        {
          "internalType": "string",
          "name": "message",
          "type": "string"
        }
      ],
      "name": "UNAUTHORIZED",
      "type": "error"
    },
    {
      "anonymous": false,
      "inputs": [
        {
          "indexed": true,
          "internalType": "bytes32",
          "name": "requestId",
          "type": "bytes32"
        },
        {
          "indexed": false,
          "internalType": "bytes",
          "name": "result",
          "type": "bytes"
        },
        {
          "indexed": false,
          "internalType": "bytes",
          "name": "err",
          "type": "bytes"
        }
      ],
      "name": "OCRResponse",
      "type": "event"
    },
    {
      "anonymous": false,
      "inputs": [
        {
          "indexed": true,
          "internalType": "address",
          "name": "from",
          "type": "address"
        },
        {
          "indexed": true,
          "internalType": "address",
          "name": "to",
          "type": "address"
        }
      ],
      "name": "OwnershipTransferRequested",
      "type": "event"
    },
    {
      "anonymous": false,
      "inputs": [
        {
          "indexed": true,
          "internalType": "address",
          "name": "from",
          "type": "address"
        },
        {
          "indexed": true,
          "internalType": "address",
          "name": "to",
          "type": "address"
        }
      ],
      "name": "OwnershipTransferred",
      "type": "event"
    },
    {
      "anonymous": false,
      "inputs": [
        {
          "indexed": true,
          "internalType": "bytes32",
          "name": "id",
          "type": "bytes32"
        }
      ],
      "name": "RequestFulfilled",
      "type": "event"
    },
    {
      "anonymous": false,
      "inputs": [
        {
          "indexed": true,
          "internalType": "bytes32",
          "name": "id",
          "type": "bytes32"
        }
      ],
      "name": "RequestSent",
      "type": "event"
    },
    {
      "inputs": [],
      "name": "acceptOwnership",
      "outputs": [],
      "stateMutability": "nonpayable",
      "type": "function"
    },
    {
      "inputs": [
        {
          "internalType": "address",
          "name": "_oracleAddress",
          "type": "address"
        },
        {
          "internalType": "bytes32",
          "name": "_requestId",
          "type": "bytes32"
        }
      ],
      "name": "addSimulatedRequestId",
      "outputs": [],
      "stateMutability": "nonpayable",
      "type": "function"
    },
    {
      "inputs": [
        {
          "components": [
            {
              "internalType": "enum Functions.Location",
              "name": "codeLocation",
              "type": "uint8"
            },
            {
              "internalType": "enum Functions.Location",
              "name": "secretsLocation",
              "type": "uint8"
            },
            {
              "internalType": "enum Functions.CodeLanguage",
              "name": "language",
              "type": "uint8"
            },
            {
              "internalType": "string",
              "name": "source",
              "type": "string"
            },
            {
              "internalType": "bytes",
              "name": "secrets",
              "type": "bytes"
            },
            {
              "internalType": "string[]",
              "name": "args",
              "type": "string[]"
            }
          ],
          "internalType": "struct Functions.Request",
          "name": "req",
          "type": "tuple"
        },
        {
          "internalType": "uint64",
          "name": "subscriptionId",
          "type": "uint64"
        },
        {
          "internalType": "uint32",
          "name": "gasLimit",
          "type": "uint32"
        },
        {
          "internalType": "uint256",
          "name": "gasPrice",
          "type": "uint256"
        }
      ],
      "name": "estimateCost",
      "outputs": [
        {
          "internalType": "uint96",
          "name": "",
          "type": "uint96"
        }
      ],
      "stateMutability": "view",
      "type": "function"
    },
    {
      "inputs": [],
      "name": "executeAuthorizedFunction",
      "outputs": [],
      "stateMutability": "nonpayable",
      "type": "function"
    },
    {
      "inputs": [
        {
          "internalType": "string",
          "name": "source",
          "type": "string"
        },
        {
          "internalType": "bytes",
          "name": "secrets",
          "type": "bytes"
        },
        {
          "internalType": "enum Functions.Location",
          "name": "secretsLocation",
          "type": "uint8"
        },
        {
          "internalType": "string[]",
          "name": "args",
          "type": "string[]"
        },
        {
          "internalType": "uint64",
          "name": "subscriptionId",
          "type": "uint64"
        },
        {
          "internalType": "uint32",
          "name": "gasLimit",
          "type": "uint32"
        }
      ],
      "name": "executeRequest",
      "outputs": [
        {
          "internalType": "bytes32",
          "name": "",
          "type": "bytes32"
        }
      ],
      "stateMutability": "nonpayable",
      "type": "function"
    },
    {
      "inputs": [],
      "name": "getDONPublicKey",
      "outputs": [
        {
          "internalType": "bytes",
          "name": "",
          "type": "bytes"
        }
      ],
      "stateMutability": "view",
      "type": "function"
    },
    {
      "inputs": [
        {
          "internalType": "bytes32",
          "name": "requestId",
          "type": "bytes32"
        },
        {
          "internalType": "bytes",
          "name": "response",
          "type": "bytes"
        },
        {
          "internalType": "bytes",
          "name": "err",
          "type": "bytes"
        }
      ],
      "name": "handleOracleFulfillment",
      "outputs": [],
      "stateMutability": "nonpayable",
      "type": "function"
    },
    {
      "inputs": [],
      "name": "latestError",
      "outputs": [
        {
          "internalType": "bytes",
          "name": "",
          "type": "bytes"
        }
      ],
      "stateMutability": "view",
      "type": "function"
    },
    {
      "inputs": [],
      "name": "latestRequestId",
      "outputs": [
        {
          "internalType": "bytes32",
          "name": "",
          "type": "bytes32"
        }
      ],
      "stateMutability": "view",
      "type": "function"
    },
    {
      "inputs": [],
      "name": "latestResponse",
      "outputs": [
        {
          "internalType": "bytes",
          "name": "",
          "type": "bytes"
        }
      ],
      "stateMutability": "view",
      "type": "function"
    },
    {
      "inputs": [],
      "name": "owner",
      "outputs": [
        {
          "internalType": "address",
          "name": "",
          "type": "address"
        }
      ],
      "stateMutability": "view",
      "type": "function"
    },
    {
      "inputs": [
        {
          "internalType": "bytes32",
          "name": "",
          "type": "bytes32"
        }
      ],
      "name": "rememberAddress",
      "outputs": [
        {
          "internalType": "address",
          "name": "",
          "type": "address"
        }
      ],
      "stateMutability": "view",
      "type": "function"
    },
    {
      "inputs": [],
      "name": "requiredBalance",
      "outputs": [
        {
          "internalType": "uint256",
          "name": "",
          "type": "uint256"
        }
      ],
      "stateMutability": "view",
      "type": "function"
    },
    {
      "inputs": [
        {
          "internalType": "address",
          "name": "",
          "type": "address"
        }
      ],
      "name": "sufficientBalance",
      "outputs": [
        {
          "internalType": "bool",
          "name": "",
          "type": "bool"
        }
      ],
      "stateMutability": "view",
      "type": "function"
    },
    {
      "inputs": [
        {
          "internalType": "address",
          "name": "to",
          "type": "address"
        }
      ],
      "name": "transferOwnership",
      "outputs": [],
      "stateMutability": "nonpayable",
      "type": "function"
    },
    {
      "inputs": [
        {
          "internalType": "address",
          "name": "_oracle",
          "type": "address"
        }
      ],
      "name": "updateOracleAddress",
      "outputs": [],
      "stateMutability": "nonpayable",
      "type": "function"
    },
    {
      "inputs": [
        {
          "internalType": "uint256",
          "name": "_newBalance",
          "type": "uint256"
        }
      ],
      "name": "updateRequiredBalance",
      "outputs": [],
      "stateMutability": "nonpayable",
      "type": "function"
    }
  ],
  "bytecode": "0x60806040523480156200001157600080fd5b506040516200235c3803806200235c8339810160408190526200003491620001a6565b600080546001600160a01b0319166001600160a01b038316178155339081906001600160a01b038216620000af5760405162461bcd60e51b815260206004820152601860248201527f43616e6e6f7420736574206f776e657220746f207a65726f000000000000000060448201526064015b60405180910390fd5b600280546001600160a01b0319166001600160a01b0384811691909117909155811615620000e257620000e281620000f9565b5050678ac7230489e8000060075550620001d89050565b6001600160a01b038116331415620001545760405162461bcd60e51b815260206004820152601760248201527f43616e6e6f74207472616e7366657220746f2073656c660000000000000000006044820152606401620000a6565b600380546001600160a01b0319166001600160a01b03838116918217909255600254604051919216907fed8889f560326eb138920d842192f0eb3dd22b4f139c87a2c57538e05bae127890600090a350565b600060208284031215620001b957600080fd5b81516001600160a01b0381168114620001d157600080fd5b9392505050565b61217480620001e86000396000f3fe608060405234801561001057600080fd5b506004361061011b5760003560e01c806379ba5097116100b2578063d328a91e11610081578063f2fde38b11610066578063f2fde38b14610275578063f7023bb614610288578063fffeb84e1461029b57600080fd5b8063d328a91e1461023d578063d4b391751461024557600080fd5b806379ba5097146101fc5780638da5cb5b14610204578063bef3a2f014610215578063d22b224a1461022a57600080fd5b806330bda99d116100ee57806330bda99d1461019b57806348ff6311146101ae5780636506e2f1146101b657806370c6ab98146101c957600080fd5b8063017ef42b1461012057806308560ace146101665780630ca761751461017d5780631aa46f5914610192575b600080fd5b61014961012e3660046119b7565b6009602052600090815260409020546001600160a01b031681565b6040516001600160a01b0390911681526020015b60405180910390f35b61016f60075481565b60405190815260200161015d565b61019061018b3660046119e9565b6102a3565b005b61016f60045481565b6101906101a936600461198b565b610349565b61019061035f565b6101906101c43660046119b7565b610405565b6101ec6101d7366004611951565b60086020526000908152604090205460ff1681565b604051901515815260200161015d565b610190610412565b6002546001600160a01b0316610149565b61021d6104c7565b60405161015d9190611d2e565b61016f610238366004611ac4565b610555565b61021d61078a565b610258610253366004611bc2565b610828565b6040516bffffffffffffffffffffffff909116815260200161015d565b610190610283366004611951565b6108be565b610190610296366004611951565b6108d2565b61021d6108f8565b60008381526001602052604090205483906001600160a01b031633146102f5576040517fa0c5ec6300000000000000000000000000000000000000000000000000000000815260040160405180910390fd5b60008181526001602052604080822080546001600160a01b03191690555182917f85e1543bf2f84fe80c6badbce3648c8539ad1df4d2b3d822938ca0538be727e691a2610343848484610905565b50505050565b6103516109c6565b61035b8282610a20565b5050565b3360009081526008602052604090205460ff16610403576040517f4572911700000000000000000000000000000000000000000000000000000000815260206004820152602b60248201527f4e6f7420656e6f7567682062616c616e636520746f206578656375746520746860448201527f69732066756e6374696f6e00000000000000000000000000000000000000000060648201526084015b60405180910390fd5b565b61040d6109c6565b600755565b6003546001600160a01b0316331461046c5760405162461bcd60e51b815260206004820152601660248201527f4d7573742062652070726f706f736564206f776e65720000000000000000000060448201526064016103fa565b600280546001600160a01b0319808216339081179093556003805490911690556040516001600160a01b03909116919082907f8be0079c531659141344cd1fd0a4f28419497f9722a3daafe3b4186f6b6457e090600090a350565b600580546104d49061205f565b80601f01602080910402602001604051908101604052809291908181526020018280546105009061205f565b801561054d5780601f106105225761010080835404028352916020019161054d565b820191906000526020600020905b81548152906001019060200180831161053057829003601f168201915b505050505081565b600061055f6109c6565b6105996040805160c08101909152806000815260200160008152602001600081526020016060815260200160608152602001606081525090565b6105e06000808d8d8080601f01602080910402602001604051908101604052809392919081815260200183838082843760009201919091525087959493925050610aa09050565b87156106895760008760018111156105fa576105fa6120e7565b14156106475761064289898080601f0160208091040260200160405190810160405280939291908181526020018383808284376000920191909152508593925050610b349050565b610689565b61068989898080601f0160208091040260200160405190810160405280939291908181526020018383808284376000920191909152508593925050610b789050565b60028510156106c4576040517ff0228b9c00000000000000000000000000000000000000000000000000000000815260040160405180910390fd5b6106d86106d18688612026565b8290610ba2565b60006106e68286863a610be2565b60048190559050600061074e88888381610702576107026120fd565b90506020028101906107149190611da2565b8080601f016020809104026020016040519081016040528093929190818152602001838380828437600092019190915250610d5792505050565b600083815260096020526040902080546001600160a01b0319166001600160a01b0392909216919091179055509b9a5050505050505050505050565b60008054604080517fd328a91e00000000000000000000000000000000000000000000000000000000815290516060936001600160a01b039093169263d328a91e9260048082019391829003018186803b1580156107e757600080fd5b505afa1580156107fb573d6000803e3d6000fd5b505050506040513d6000823e601f3d908101601f191682016040526108239190810190611a56565b905090565b600080546001600160a01b031663d227d2458561084488610f44565b86866040518563ffffffff1660e01b81526004016108659493929190611d66565b60206040518083038186803b15801561087d57600080fd5b505afa158015610891573d6000803e3d6000fd5b505050506040513d601f19601f820116820180604052508101906108b59190611cd4565b95945050505050565b6108c66109c6565b6108cf816111da565b50565b6108da6109c6565b600080546001600160a01b0319166001600160a01b03831617905550565b600680546104d49061205f565b815161091890600590602085019061171e565b50805161092c90600690602084019061171e565b5060008280602001905181019061094391906119d0565b6000858152600960209081526040808320546007546001600160a01b03909116808552600890935292819020805460ff1916938510159390931790925590519192509085907f7bab0ec163b5c132c72b8146ac4d6e067e82ed58f8b131150aa71c9258911562906109b79087908790611d41565b60405180910390a25050505050565b6002546001600160a01b031633146104035760405162461bcd60e51b815260206004820152601660248201527f4f6e6c792063616c6c61626c65206279206f776e65720000000000000000000060448201526064016103fa565b60008181526001602052604090205481906001600160a01b031615610a71576040517f8b457ad200000000000000000000000000000000000000000000000000000000815260040160405180910390fd5b50600090815260016020526040902080546001600160a01b0319166001600160a01b0392909216919091179055565b8051610ad8576040517f22ce3edd00000000000000000000000000000000000000000000000000000000815260040160405180910390fd5b83836001811115610aeb57610aeb6120e7565b90816001811115610afe57610afe6120e7565b90525060408401828015610b1457610b146120e7565b90818015610b2457610b246120e7565b9052506060909301929092525050565b8051610b535760405163e889636f60e01b815260040160405180910390fd5b6020820160005b90816001811115610b6d57610b6d6120e7565b905250608090910152565b8051610b975760405163e889636f60e01b815260040160405180910390fd5b602082016001610b5a565b8051610bda576040517ffe936cb700000000000000000000000000000000000000000000000000000000815260040160405180910390fd5b60a090910152565b6000805481906001600160a01b031663a98eb20686610c0089610f44565b87876040518563ffffffff1660e01b8152600401610c219493929190611d66565b602060405180830381600087803b158015610c3b57600080fd5b505af1158015610c4f573d6000803e3d6000fd5b505050506040513d601f19601f82011682018060405250810190610c7391906119d0565b905060008054906101000a90046001600160a01b03166001600160a01b0316635ab1bd536040518163ffffffff1660e01b815260040160206040518083038186803b158015610cc157600080fd5b505afa158015610cd5573d6000803e3d6000fd5b505050506040513d601f19601f82011682018060405250810190610cf9919061196e565b60008281526001602052604080822080546001600160a01b0319166001600160a01b039490941693909317909255905182917f1131472297a800fee664d1d89cfa8f7676ff07189ecc53f80bbb5f4969099db891a295945050505050565b60008181808060025b602a811015610f3957610d7561010085611f99565b9350848181518110610d8957610d896120fd565b016020015160f81c925084610d9f826001611e96565b81518110610daf57610daf6120fd565b016020015160f81c915060616001600160a01b03841610801590610ddd57506066836001600160a01b031611155b15610df457610ded605784611fe7565b9250610e5f565b6041836001600160a01b031610158015610e1857506046836001600160a01b031611155b15610e2857610ded603784611fe7565b6030836001600160a01b031610158015610e4c57506039836001600160a01b031611155b15610e5f57610e5c603084611fe7565b92505b6061826001600160a01b031610158015610e8357506066826001600160a01b031611155b15610e9a57610e93605783611fe7565b9150610f05565b6041826001600160a01b031610158015610ebe57506046826001600160a01b031611155b15610ece57610e93603783611fe7565b6030826001600160a01b031610158015610ef257506039826001600160a01b031611155b15610f0557610f02603083611fe7565b91505b81610f11846010611f99565b610f1b9190611e6b565b610f259085611e6b565b9350610f32600282611e96565b9050610d60565b509195945050505050565b6060610f63604051806040016040528060608152602001600081525090565b610f6f81610100611285565b5060408051808201909152600c81527f636f64654c6f636174696f6e00000000000000000000000000000000000000006020820152610faf9082906112f0565b8251610fcd906001811115610fc657610fc66120e7565b829061130c565b60408051808201909152600881527f6c616e6775616765000000000000000000000000000000000000000000000000602082015261100c9082906112f0565b6040830151611023908015610fc657610fc66120e7565b60408051808201909152600681527f736f75726365000000000000000000000000000000000000000000000000000060208201526110629082906112f0565b60608301516110729082906112f0565b60a083015151156111215760408051808201909152600481527f617267730000000000000000000000000000000000000000000000000000000060208201526110bc9082906112f0565b6110c581611332565b60005b8360a0015151811015611117576111058460a0015182815181106110ee576110ee6120fd565b6020026020010151836112f090919063ffffffff16565b8061110f81612094565b9150506110c8565b506111218161133d565b608083015151156111d35760408051808201909152600f81527f736563726574734c6f636174696f6e0000000000000000000000000000000000602082015261116b9082906112f0565b61118483602001516001811115610fc657610fc66120e7565b60408051808201909152600781527f736563726574730000000000000000000000000000000000000000000000000060208201526111c39082906112f0565b60808301516111d3908290611348565b5192915050565b6001600160a01b0381163314156112335760405162461bcd60e51b815260206004820152601760248201527f43616e6e6f74207472616e7366657220746f2073656c6600000000000000000060448201526064016103fa565b600380546001600160a01b0319166001600160a01b03838116918217909255600254604051919216907fed8889f560326eb138920d842192f0eb3dd22b4f139c87a2c57538e05bae127890600090a350565b6040805180820190915260608152600060208201526112a56020836120af565b156112cd576112b56020836120af565b6112c090602061200f565b6112ca9083611e96565b91505b506020808301829052604080518085526000815283019091019052815b92915050565b6112fd8260038351611351565b6113078282611460565b505050565b67ffffffffffffffff8111156113265761035b828261148e565b61035b82600083611351565b6108cf8160046114c5565b6108cf8160076114c5565b6112fd82600283515b60178167ffffffffffffffff1611611376576103438360e0600585901b1683176114d6565b60ff8167ffffffffffffffff16116113b45761139d836018611fe0600586901b16176114d6565b506103438367ffffffffffffffff831660016114fb565b61ffff8167ffffffffffffffff16116113f3576113dc836019611fe0600586901b16176114d6565b506103438367ffffffffffffffff831660026114fb565b63ffffffff8167ffffffffffffffff16116114345761141d83601a611fe0600586901b16176114d6565b506103438367ffffffffffffffff831660046114fb565b61144983601b611fe0600586901b16176114d6565b506103438367ffffffffffffffff831660086114fb565b60408051808201909152606081526000602082015261148783846000015151848551611529565b9392505050565b6114998260c26114d6565b5061035b82826040516020016114b191815260200190565b604051602081830303815290604052611348565b61130782601f611fe0600585901b16175b6040805180820190915260608152600060208201526114878384600001515184611613565b60408051808201909152606081526000602082015261152184856000015151858561166f565b949350505050565b604080518082019091526060815260006020820152825182111561154c57600080fd5b602085015161155b8386611e96565b111561158e5761158e8561157e876020015187866115799190611e96565b6116f0565b611589906002611fc8565b611707565b6000808651805187602083010193508088870111156115ad5787860182525b505050602084015b602084106115ed57805182526115cc602083611e96565b91506115d9602082611e96565b90506115e660208561200f565b93506115b5565b51815160001960208690036101000a019081169019919091161790525083949350505050565b604080518082019091526060815260006020820152836020015183106116485761164884856020015160026115899190611fc8565b835180516020858301018481535080851415611665576001810182525b5093949350505050565b60408051808201909152606081526000602082015260208501516116938584611e96565b11156116a7576116a78561157e8685611e96565b600060016116b784610100611ef1565b6116c1919061200f565b90508551838682010185831982511617815250805184870111156116e55783860181525b509495945050505050565b6000818311156117015750816112ea565b50919050565b81516117138383611285565b506103438382611460565b82805461172a9061205f565b90600052602060002090601f01602090048101928261174c5760008555611792565b82601f1061176557805160ff1916838001178555611792565b82800160010185558215611792579182015b82811115611792578251825591602001919060010190611777565b5061179e9291506117a2565b5090565b5b8082111561179e57600081556001016117a3565b600067ffffffffffffffff808411156117d2576117d2612113565b8360051b60206117e3818301611e12565b8681529350808401858381018910156117fb57600080fd5b60009350835b8881101561183657813586811115611817578586fd5b6118238b828b016118ac565b8452509183019190830190600101611801565b5050505050509392505050565b600082601f83011261185457600080fd5b611487838335602085016117b7565b60008083601f84011261187557600080fd5b50813567ffffffffffffffff81111561188d57600080fd5b6020830191508360208285010111156118a557600080fd5b9250929050565b600082601f8301126118bd57600080fd5b81356118d06118cb82611e43565b611e12565b8181528460208386010111156118e557600080fd5b816020850160208301376000918101602001919091529392505050565b80356001811061191157600080fd5b919050565b80356002811061191157600080fd5b803563ffffffff8116811461191157600080fd5b803567ffffffffffffffff8116811461191157600080fd5b60006020828403121561196357600080fd5b813561148781612129565b60006020828403121561198057600080fd5b815161148781612129565b6000806040838503121561199e57600080fd5b82356119a981612129565b946020939093013593505050565b6000602082840312156119c957600080fd5b5035919050565b6000602082840312156119e257600080fd5b5051919050565b6000806000606084860312156119fe57600080fd5b83359250602084013567ffffffffffffffff80821115611a1d57600080fd5b611a29878388016118ac565b93506040860135915080821115611a3f57600080fd5b50611a4c868287016118ac565b9150509250925092565b600060208284031215611a6857600080fd5b815167ffffffffffffffff811115611a7f57600080fd5b8201601f81018413611a9057600080fd5b8051611a9e6118cb82611e43565b818152856020838501011115611ab357600080fd5b6108b5826020830160208601612033565b600080600080600080600080600060c08a8c031215611ae257600080fd5b893567ffffffffffffffff80821115611afa57600080fd5b611b068d838e01611863565b909b50995060208c0135915080821115611b1f57600080fd5b611b2b8d838e01611863565b9099509750879150611b3f60408d01611916565b965060608c0135915080821115611b5557600080fd5b818c0191508c601f830112611b6957600080fd5b813581811115611b7857600080fd5b8d60208260051b8501011115611b8d57600080fd5b602083019650809550505050611ba560808b01611939565b9150611bb360a08b01611925565b90509295985092959850929598565b60008060008060808587031215611bd857600080fd5b843567ffffffffffffffff80821115611bf057600080fd5b9086019060c08289031215611c0457600080fd5b611c0c611de9565b611c1583611916565b8152611c2360208401611916565b6020820152611c3460408401611902565b6040820152606083013582811115611c4b57600080fd5b611c578a8286016118ac565b606083015250608083013582811115611c6f57600080fd5b611c7b8a8286016118ac565b60808301525060a083013582811115611c9357600080fd5b611c9f8a828601611843565b60a0830152509550611cb691505060208601611939565b9250611cc460408601611925565b9396929550929360600135925050565b600060208284031215611ce657600080fd5b81516bffffffffffffffffffffffff8116811461148757600080fd5b60008151808452611d1a816020860160208601612033565b601f01601f19169290920160200192915050565b6020815260006114876020830184611d02565b604081526000611d546040830185611d02565b82810360208401526108b58185611d02565b67ffffffffffffffff85168152608060208201526000611d896080830186611d02565b63ffffffff949094166040830152506060015292915050565b6000808335601e19843603018112611db957600080fd5b83018035915067ffffffffffffffff821115611dd457600080fd5b6020019150368190038213156118a557600080fd5b60405160c0810167ffffffffffffffff81118282101715611e0c57611e0c612113565b60405290565b604051601f8201601f1916810167ffffffffffffffff81118282101715611e3b57611e3b612113565b604052919050565b600067ffffffffffffffff821115611e5d57611e5d612113565b50601f01601f191660200190565b60006001600160a01b03808316818516808303821115611e8d57611e8d6120d1565b01949350505050565b60008219821115611ea957611ea96120d1565b500190565b600181815b80851115611ee9578160001904821115611ecf57611ecf6120d1565b80851615611edc57918102915b93841c9390800290611eb3565b509250929050565b60006114878383600082611f07575060016112ea565b81611f14575060006112ea565b8160018114611f2a5760028114611f3457611f50565b60019150506112ea565b60ff841115611f4557611f456120d1565b50506001821b6112ea565b5060208310610133831016604e8410600b8410161715611f73575081810a6112ea565b611f7d8383611eae565b8060001904821115611f9157611f916120d1565b029392505050565b60006001600160a01b0380831681851681830481118215151615611fbf57611fbf6120d1565b02949350505050565b6000816000190483118215151615611fe257611fe26120d1565b500290565b60006001600160a01b0383811690831681811015612007576120076120d1565b039392505050565b600082821015612021576120216120d1565b500390565b60006114873684846117b7565b60005b8381101561204e578181015183820152602001612036565b838111156103435750506000910152565b600181811c9082168061207357607f821691505b6020821081141561170157634e487b7160e01b600052602260045260246000fd5b60006000198214156120a8576120a86120d1565b5060010190565b6000826120cc57634e487b7160e01b600052601260045260246000fd5b500690565b634e487b7160e01b600052601160045260246000fd5b634e487b7160e01b600052602160045260246000fd5b634e487b7160e01b600052603260045260246000fd5b634e487b7160e01b600052604160045260246000fd5b6001600160a01b03811681146108cf57600080fdfea26469706673582212209f8f0ad2ab222116dbdb6586ca5be66d34e9e2ccec84ce206351fb206ee333b964736f6c63430008070033",
  "linkReferences": {},
  "deployedLinkReferences": {}
}