{
  "_format": "hh-sol-artifact-1",
  "contractName": "FunctionsBillingRegistry",
  "sourceName": "contracts/dev/functions/FunctionsBillingRegistry.sol",
  "abi": [
    {
      "inputs": [
        {
          "internalType": "address",
          "name": "link",
          "type": "address"
        },
        {
          "internalType": "address",
          "name": "linkEthFeed",
          "type": "address"
        },
        {
          "internalType": "address",
          "name": "oracle",
          "type": "address"
        }
      ],
      "stateMutability": "nonpayable",
      "type": "constructor"
    },
    {
      "inputs": [
        {
          "internalType": "uint256",
          "name": "internalBalance",
          "type": "uint256"
        },
        {
          "internalType": "uint256",
          "name": "externalBalance",
          "type": "uint256"
        }
      ],
      "name": "BalanceInvariantViolated",
      "type": "error"
    },
    {
      "inputs": [],
      "name": "EmptySendersList",
      "type": "error"
    },
    {
      "inputs": [
        {
          "internalType": "uint32",
          "name": "have",
          "type": "uint32"
        },
        {
          "internalType": "uint32",
          "name": "want",
          "type": "uint32"
        }
      ],
      "name": "GasLimitTooBig",
      "type": "error"
    },
    {
      "inputs": [],
      "name": "IncorrectRequestID",
      "type": "error"
    },
    {
      "inputs": [],
      "name": "InsufficientBalance",
      "type": "error"
    },
    {
      "inputs": [],
      "name": "InvalidCalldata",
      "type": "error"
    },
    {
      "inputs": [
        {
          "internalType": "uint64",
          "name": "subscriptionId",
          "type": "uint64"
        },
        {
          "internalType": "address",
          "name": "consumer",
          "type": "address"
        }
      ],
      "name": "InvalidConsumer",
      "type": "error"
    },
    {
      "inputs": [
        {
          "internalType": "int256",
          "name": "linkWei",
          "type": "int256"
        }
      ],
      "name": "InvalidLinkWeiPrice",
      "type": "error"
    },
    {
      "inputs": [],
      "name": "InvalidSubscription",
      "type": "error"
    },
    {
      "inputs": [
        {
          "internalType": "address",
          "name": "proposedOwner",
          "type": "address"
        }
      ],
      "name": "MustBeRequestedOwner",
      "type": "error"
    },
    {
      "inputs": [
        {
          "internalType": "address",
          "name": "owner",
          "type": "address"
        }
      ],
      "name": "MustBeSubOwner",
      "type": "error"
    },
    {
      "inputs": [],
      "name": "NotAllowedToSetSenders",
      "type": "error"
    },
    {
      "inputs": [],
      "name": "OnlyCallableFromLink",
      "type": "error"
    },
    {
      "inputs": [],
      "name": "PaymentTooLarge",
      "type": "error"
    },
    {
      "inputs": [],
      "name": "PendingRequestExists",
      "type": "error"
    },
    {
      "inputs": [],
      "name": "Reentrant",
      "type": "error"
    },
    {
      "inputs": [],
      "name": "TooManyConsumers",
      "type": "error"
    },
    {
      "inputs": [],
      "name": "UnauthorizedSender",
      "type": "error"
    },
    {
      "anonymous": false,
      "inputs": [
        {
          "indexed": false,
          "internalType": "address[]",
          "name": "senders",
          "type": "address[]"
        },
        {
          "indexed": false,
          "internalType": "address",
          "name": "changedBy",
          "type": "address"
        }
      ],
      "name": "AuthorizedSendersChanged",
      "type": "event"
    },
    {
      "anonymous": false,
      "inputs": [
        {
          "indexed": true,
          "internalType": "bytes32",
          "name": "requestId",
          "type": "bytes32"
        },
        {
          "indexed": false,
          "internalType": "uint64",
          "name": "subscriptionId",
          "type": "uint64"
        },
        {
          "indexed": false,
          "internalType": "uint96",
          "name": "signerPayment",
          "type": "uint96"
        },
        {
          "indexed": false,
          "internalType": "uint96",
          "name": "transmitterPayment",
          "type": "uint96"
        },
        {
          "indexed": false,
          "internalType": "uint96",
          "name": "totalCost",
          "type": "uint96"
        },
        {
          "indexed": false,
          "internalType": "bool",
          "name": "success",
          "type": "bool"
        }
      ],
      "name": "BillingEnd",
      "type": "event"
    },
    {
      "anonymous": false,
      "inputs": [
        {
          "indexed": true,
          "internalType": "bytes32",
          "name": "requestId",
          "type": "bytes32"
        },
        {
          "components": [
            {
              "internalType": "uint64",
              "name": "subscriptionId",
              "type": "uint64"
            },
            {
              "internalType": "address",
              "name": "client",
              "type": "address"
            },
            {
              "internalType": "uint32",
              "name": "gasLimit",
              "type": "uint32"
            },
            {
              "internalType": "uint256",
              "name": "gasPrice",
              "type": "uint256"
            },
            {
              "internalType": "address",
              "name": "don",
              "type": "address"
            },
            {
              "internalType": "uint96",
              "name": "donFee",
              "type": "uint96"
            },
            {
              "internalType": "uint96",
              "name": "registryFee",
              "type": "uint96"
            },
            {
              "internalType": "uint96",
              "name": "estimatedCost",
              "type": "uint96"
            },
            {
              "internalType": "uint256",
              "name": "timestamp",
              "type": "uint256"
            }
          ],
          "indexed": false,
          "internalType": "struct FunctionsBillingRegistry.Commitment",
          "name": "commitment",
          "type": "tuple"
        }
      ],
      "name": "BillingStart",
      "type": "event"
    },
    {
      "anonymous": false,
      "inputs": [
        {
          "indexed": false,
          "internalType": "uint32",
          "name": "maxGasLimit",
          "type": "uint32"
        },
        {
          "indexed": false,
          "internalType": "uint32",
          "name": "stalenessSeconds",
          "type": "uint32"
        },
        {
          "indexed": false,
          "internalType": "uint256",
          "name": "gasAfterPaymentCalculation",
          "type": "uint256"
        },
        {
          "indexed": false,
          "internalType": "int256",
          "name": "fallbackWeiPerUnitLink",
          "type": "int256"
        },
        {
          "indexed": false,
          "internalType": "uint32",
          "name": "gasOverhead",
          "type": "uint32"
        }
      ],
      "name": "ConfigSet",
      "type": "event"
    },
    {
      "anonymous": false,
      "inputs": [
        {
          "indexed": false,
          "internalType": "address",
          "name": "to",
          "type": "address"
        },
        {
          "indexed": false,
          "internalType": "uint256",
          "name": "amount",
          "type": "uint256"
        }
      ],
      "name": "FundsRecovered",
      "type": "event"
    },
    {
      "anonymous": false,
      "inputs": [
        {
          "indexed": true,
          "internalType": "address",
          "name": "from",
          "type": "address"
        },
        {
          "indexed": true,
          "internalType": "address",
          "name": "to",
          "type": "address"
        }
      ],
      "name": "OwnershipTransferRequested",
      "type": "event"
    },
    {
      "anonymous": false,
      "inputs": [
        {
          "indexed": true,
          "internalType": "address",
          "name": "from",
          "type": "address"
        },
        {
          "indexed": true,
          "internalType": "address",
          "name": "to",
          "type": "address"
        }
      ],
      "name": "OwnershipTransferred",
      "type": "event"
    },
    {
      "anonymous": false,
      "inputs": [
        {
          "indexed": false,
          "internalType": "address",
          "name": "account",
          "type": "address"
        }
      ],
      "name": "Paused",
      "type": "event"
    },
    {
      "anonymous": false,
      "inputs": [
        {
          "indexed": true,
          "internalType": "bytes32",
          "name": "requestId",
          "type": "bytes32"
        }
      ],
      "name": "RequestTimedOut",
      "type": "event"
    },
    {
      "anonymous": false,
      "inputs": [
        {
          "indexed": true,
          "internalType": "uint64",
          "name": "subscriptionId",
          "type": "uint64"
        },
        {
          "indexed": false,
          "internalType": "address",
          "name": "to",
          "type": "address"
        },
        {
          "indexed": false,
          "internalType": "uint256",
          "name": "amount",
          "type": "uint256"
        }
      ],
      "name": "SubscriptionCanceled",
      "type": "event"
    },
    {
      "anonymous": false,
      "inputs": [
        {
          "indexed": true,
          "internalType": "uint64",
          "name": "subscriptionId",
          "type": "uint64"
        },
        {
          "indexed": false,
          "internalType": "address",
          "name": "consumer",
          "type": "address"
        }
      ],
      "name": "SubscriptionConsumerAdded",
      "type": "event"
    },
    {
      "anonymous": false,
      "inputs": [
        {
          "indexed": true,
          "internalType": "uint64",
          "name": "subscriptionId",
          "type": "uint64"
        },
        {
          "indexed": false,
          "internalType": "address",
          "name": "consumer",
          "type": "address"
        }
      ],
      "name": "SubscriptionConsumerRemoved",
      "type": "event"
    },
    {
      "anonymous": false,
      "inputs": [
        {
          "indexed": true,
          "internalType": "uint64",
          "name": "subscriptionId",
          "type": "uint64"
        },
        {
          "indexed": false,
          "internalType": "address",
          "name": "owner",
          "type": "address"
        }
      ],
      "name": "SubscriptionCreated",
      "type": "event"
    },
    {
      "anonymous": false,
      "inputs": [
        {
          "indexed": true,
          "internalType": "uint64",
          "name": "subscriptionId",
          "type": "uint64"
        },
        {
          "indexed": false,
          "internalType": "uint256",
          "name": "oldBalance",
          "type": "uint256"
        },
        {
          "indexed": false,
          "internalType": "uint256",
          "name": "newBalance",
          "type": "uint256"
        }
      ],
      "name": "SubscriptionFunded",
      "type": "event"
    },
    {
      "anonymous": false,
      "inputs": [
        {
          "indexed": true,
          "internalType": "uint64",
          "name": "subscriptionId",
          "type": "uint64"
        },
        {
          "indexed": false,
          "internalType": "address",
          "name": "from",
          "type": "address"
        },
        {
          "indexed": false,
          "internalType": "address",
          "name": "to",
          "type": "address"
        }
      ],
      "name": "SubscriptionOwnerTransferRequested",
      "type": "event"
    },
    {
      "anonymous": false,
      "inputs": [
        {
          "indexed": true,
          "internalType": "uint64",
          "name": "subscriptionId",
          "type": "uint64"
        },
        {
          "indexed": false,
          "internalType": "address",
          "name": "from",
          "type": "address"
        },
        {
          "indexed": false,
          "internalType": "address",
          "name": "to",
          "type": "address"
        }
      ],
      "name": "SubscriptionOwnerTransferred",
      "type": "event"
    },
    {
      "anonymous": false,
      "inputs": [
        {
          "indexed": false,
          "internalType": "address",
          "name": "account",
          "type": "address"
        }
      ],
      "name": "Unpaused",
      "type": "event"
    },
    {
      "inputs": [],
      "name": "LINK",
      "outputs": [
        {
          "internalType": "contract LinkTokenInterface",
          "name": "",
          "type": "address"
        }
      ],
      "stateMutability": "view",
      "type": "function"
    },
    {
      "inputs": [],
      "name": "LINK_ETH_FEED",
      "outputs": [
        {
          "internalType": "contract AggregatorV3Interface",
          "name": "",
          "type": "address"
        }
      ],
      "stateMutability": "view",
      "type": "function"
    },
    {
      "inputs": [],
      "name": "MAX_CONSUMERS",
      "outputs": [
        {
          "internalType": "uint16",
          "name": "",
          "type": "uint16"
        }
      ],
      "stateMutability": "view",
      "type": "function"
    },
    {
      "inputs": [],
      "name": "acceptOwnership",
      "outputs": [],
      "stateMutability": "nonpayable",
      "type": "function"
    },
    {
      "inputs": [
        {
          "internalType": "uint64",
          "name": "subscriptionId",
          "type": "uint64"
        }
      ],
      "name": "acceptSubscriptionOwnerTransfer",
      "outputs": [],
      "stateMutability": "nonpayable",
      "type": "function"
    },
    {
      "inputs": [
        {
          "internalType": "uint64",
          "name": "subscriptionId",
          "type": "uint64"
        },
        {
          "internalType": "address",
          "name": "consumer",
          "type": "address"
        }
      ],
      "name": "addConsumer",
      "outputs": [],
      "stateMutability": "nonpayable",
      "type": "function"
    },
    {
      "inputs": [
        {
          "internalType": "uint64",
          "name": "subscriptionId",
          "type": "uint64"
        },
        {
          "internalType": "address",
          "name": "to",
          "type": "address"
        }
      ],
      "name": "cancelSubscription",
      "outputs": [],
      "stateMutability": "nonpayable",
      "type": "function"
    },
    {
      "inputs": [],
      "name": "createSubscription",
      "outputs": [
        {
          "internalType": "uint64",
          "name": "",
          "type": "uint64"
        }
      ],
      "stateMutability": "nonpayable",
      "type": "function"
    },
    {
      "inputs": [
        {
          "internalType": "uint32",
          "name": "gasLimit",
          "type": "uint32"
        },
        {
          "internalType": "uint256",
          "name": "gasPrice",
          "type": "uint256"
        },
        {
          "internalType": "uint96",
          "name": "donFee",
          "type": "uint96"
        },
        {
          "internalType": "uint96",
          "name": "registryFee",
          "type": "uint96"
        }
      ],
      "name": "estimateCost",
      "outputs": [
        {
          "internalType": "uint96",
          "name": "",
          "type": "uint96"
        }
      ],
      "stateMutability": "view",
      "type": "function"
    },
    {
      "inputs": [
        {
          "internalType": "bytes32",
          "name": "requestId",
          "type": "bytes32"
        },
        {
          "internalType": "bytes",
          "name": "response",
          "type": "bytes"
        },
        {
          "internalType": "bytes",
          "name": "err",
          "type": "bytes"
        },
        {
          "internalType": "address",
          "name": "transmitter",
          "type": "address"
        },
        {
          "internalType": "address[31]",
          "name": "signers",
          "type": "address[31]"
        },
        {
          "internalType": "uint8",
          "name": "signerCount",
          "type": "uint8"
        },
        {
          "internalType": "uint256",
          "name": "reportValidationGas",
          "type": "uint256"
        },
        {
          "internalType": "uint256",
          "name": "initialGas",
          "type": "uint256"
        }
      ],
      "name": "fulfillAndBill",
      "outputs": [
        {
          "internalType": "bool",
          "name": "success",
          "type": "bool"
        }
      ],
      "stateMutability": "nonpayable",
      "type": "function"
    },
    {
      "inputs": [],
      "name": "getAuthorizedSenders",
      "outputs": [
        {
          "internalType": "address[]",
          "name": "",
          "type": "address[]"
        }
      ],
      "stateMutability": "view",
      "type": "function"
    },
    {
      "inputs": [],
      "name": "getConfig",
      "outputs": [
        {
          "internalType": "uint32",
          "name": "maxGasLimit",
          "type": "uint32"
        },
        {
          "internalType": "uint32",
          "name": "stalenessSeconds",
          "type": "uint32"
        },
        {
          "internalType": "uint256",
          "name": "gasAfterPaymentCalculation",
          "type": "uint256"
        },
        {
          "internalType": "int256",
          "name": "fallbackWeiPerUnitLink",
          "type": "int256"
        },
        {
          "internalType": "uint32",
          "name": "gasOverhead",
          "type": "uint32"
        }
      ],
      "stateMutability": "view",
      "type": "function"
    },
    {
      "inputs": [],
      "name": "getCurrentsubscriptionId",
      "outputs": [
        {
          "internalType": "uint64",
          "name": "",
          "type": "uint64"
        }
      ],
      "stateMutability": "view",
      "type": "function"
    },
    {
      "inputs": [],
      "name": "getRequestConfig",
      "outputs": [
        {
          "internalType": "uint32",
          "name": "",
          "type": "uint32"
        },
        {
          "internalType": "address[]",
          "name": "",
          "type": "address[]"
        }
      ],
      "stateMutability": "view",
      "type": "function"
    },
    {
      "inputs": [
        {
          "internalType": "bytes",
          "name": "",
          "type": "bytes"
        },
        {
          "components": [
            {
              "internalType": "uint64",
              "name": "subscriptionId",
              "type": "uint64"
            },
            {
              "internalType": "address",
              "name": "client",
              "type": "address"
            },
            {
              "internalType": "uint32",
              "name": "gasLimit",
              "type": "uint32"
            },
            {
              "internalType": "uint256",
              "name": "gasPrice",
              "type": "uint256"
            }
          ],
          "internalType": "struct FunctionsBillingRegistryInterface.RequestBilling",
          "name": "",
          "type": "tuple"
        }
      ],
      "name": "getRequiredFee",
      "outputs": [
        {
          "internalType": "uint96",
          "name": "",
          "type": "uint96"
        }
      ],
      "stateMutability": "pure",
      "type": "function"
    },
    {
      "inputs": [
        {
          "internalType": "uint64",
          "name": "subscriptionId",
          "type": "uint64"
        }
      ],
      "name": "getSubscription",
      "outputs": [
        {
          "internalType": "uint96",
          "name": "balance",
          "type": "uint96"
        },
        {
          "internalType": "address",
          "name": "owner",
          "type": "address"
        },
        {
          "internalType": "address[]",
          "name": "consumers",
          "type": "address[]"
        }
      ],
      "stateMutability": "view",
      "type": "function"
    },
    {
      "inputs": [
        {
          "internalType": "uint64",
          "name": "subscriptionId",
          "type": "uint64"
        }
      ],
      "name": "getSubscriptionOwner",
      "outputs": [
        {
          "internalType": "address",
          "name": "owner",
          "type": "address"
        }
      ],
      "stateMutability": "view",
      "type": "function"
    },
    {
      "inputs": [],
      "name": "getTotalBalance",
      "outputs": [
        {
          "internalType": "uint256",
          "name": "",
          "type": "uint256"
        }
      ],
      "stateMutability": "view",
      "type": "function"
    },
    {
      "inputs": [
        {
          "internalType": "address",
          "name": "sender",
          "type": "address"
        }
      ],
      "name": "isAuthorizedSender",
      "outputs": [
        {
          "internalType": "bool",
          "name": "",
          "type": "bool"
        }
      ],
      "stateMutability": "view",
      "type": "function"
    },
    {
      "inputs": [
        {
          "internalType": "address",
          "name": "",
          "type": "address"
        },
        {
          "internalType": "uint256",
          "name": "amount",
          "type": "uint256"
        },
        {
          "internalType": "bytes",
          "name": "data",
          "type": "bytes"
        }
      ],
      "name": "onTokenTransfer",
      "outputs": [],
      "stateMutability": "nonpayable",
      "type": "function"
    },
    {
      "inputs": [
        {
          "internalType": "address",
          "name": "recipient",
          "type": "address"
        },
        {
          "internalType": "uint96",
          "name": "amount",
          "type": "uint96"
        }
      ],
      "name": "oracleWithdraw",
      "outputs": [],
      "stateMutability": "nonpayable",
      "type": "function"
    },
    {
      "inputs": [],
      "name": "owner",
      "outputs": [
        {
          "internalType": "address",
          "name": "",
          "type": "address"
        }
      ],
      "stateMutability": "view",
      "type": "function"
    },
    {
      "inputs": [
        {
          "internalType": "uint64",
          "name": "subscriptionId",
          "type": "uint64"
        }
      ],
      "name": "ownerCancelSubscription",
      "outputs": [],
      "stateMutability": "nonpayable",
      "type": "function"
    },
    {
      "inputs": [],
      "name": "pause",
      "outputs": [],
      "stateMutability": "nonpayable",
      "type": "function"
    },
    {
      "inputs": [],
      "name": "paused",
      "outputs": [
        {
          "internalType": "bool",
          "name": "",
          "type": "bool"
        }
      ],
      "stateMutability": "view",
      "type": "function"
    },
    {
      "inputs": [
        {
          "internalType": "uint64",
          "name": "subscriptionId",
          "type": "uint64"
        }
      ],
      "name": "pendingRequestExists",
      "outputs": [
        {
          "internalType": "bool",
          "name": "",
          "type": "bool"
        }
      ],
      "stateMutability": "view",
      "type": "function"
    },
    {
      "inputs": [
        {
          "internalType": "address",
          "name": "to",
          "type": "address"
        }
      ],
      "name": "recoverFunds",
      "outputs": [],
      "stateMutability": "nonpayable",
      "type": "function"
    },
    {
      "inputs": [
        {
          "internalType": "uint64",
          "name": "subscriptionId",
          "type": "uint64"
        },
        {
          "internalType": "address",
          "name": "consumer",
          "type": "address"
        }
      ],
      "name": "removeConsumer",
      "outputs": [],
      "stateMutability": "nonpayable",
      "type": "function"
    },
    {
      "inputs": [
        {
          "internalType": "uint64",
          "name": "subscriptionId",
          "type": "uint64"
        },
        {
          "internalType": "address",
          "name": "newOwner",
          "type": "address"
        }
      ],
      "name": "requestSubscriptionOwnerTransfer",
      "outputs": [],
      "stateMutability": "nonpayable",
      "type": "function"
    },
    {
      "inputs": [
        {
          "internalType": "address[]",
          "name": "senders",
          "type": "address[]"
        }
      ],
      "name": "setAuthorizedSenders",
      "outputs": [],
      "stateMutability": "nonpayable",
      "type": "function"
    },
    {
      "inputs": [
        {
          "internalType": "uint32",
          "name": "maxGasLimit",
          "type": "uint32"
        },
        {
          "internalType": "uint32",
          "name": "stalenessSeconds",
          "type": "uint32"
        },
        {
          "internalType": "uint256",
          "name": "gasAfterPaymentCalculation",
          "type": "uint256"
        },
        {
          "internalType": "int256",
          "name": "fallbackWeiPerUnitLink",
          "type": "int256"
        },
        {
          "internalType": "uint32",
          "name": "gasOverhead",
          "type": "uint32"
        },
        {
          "internalType": "uint32",
          "name": "requestTimeoutSeconds",
          "type": "uint32"
        }
      ],
      "name": "setConfig",
      "outputs": [],
      "stateMutability": "nonpayable",
      "type": "function"
    },
    {
      "inputs": [
        {
          "internalType": "bytes",
          "name": "data",
          "type": "bytes"
        },
        {
          "components": [
            {
              "internalType": "uint64",
              "name": "subscriptionId",
              "type": "uint64"
            },
            {
              "internalType": "address",
              "name": "client",
              "type": "address"
            },
            {
              "internalType": "uint32",
              "name": "gasLimit",
              "type": "uint32"
            },
            {
              "internalType": "uint256",
              "name": "gasPrice",
              "type": "uint256"
            }
          ],
          "internalType": "struct FunctionsBillingRegistryInterface.RequestBilling",
          "name": "billing",
          "type": "tuple"
        }
      ],
      "name": "startBilling",
      "outputs": [
        {
          "internalType": "bytes32",
          "name": "",
          "type": "bytes32"
        }
      ],
      "stateMutability": "nonpayable",
      "type": "function"
    },
    {
      "inputs": [
        {
          "internalType": "bytes32[]",
          "name": "requestIdsToTimeout",
          "type": "bytes32[]"
        }
      ],
      "name": "timeoutRequests",
      "outputs": [],
      "stateMutability": "nonpayable",
      "type": "function"
    },
    {
      "inputs": [
        {
          "internalType": "address",
          "name": "to",
          "type": "address"
        }
      ],
      "name": "transferOwnership",
      "outputs": [],
      "stateMutability": "nonpayable",
      "type": "function"
    },
    {
      "inputs": [],
      "name": "unpause",
      "outputs": [],
      "stateMutability": "nonpayable",
      "type": "function"
    }
  ],
  "bytecode": "0x60e06040523480156200001157600080fd5b506040516200487f3803806200487f8339810160408190526200003491620001bf565b33806000816200008b5760405162461bcd60e51b815260206004820152601860248201527f43616e6e6f7420736574206f776e657220746f207a65726f000000000000000060448201526064015b60405180910390fd5b600080546001600160a01b0319166001600160a01b0384811691909117909155811615620000be57620000be81620000f6565b50506001805460ff60a01b19169055506001600160601b0319606093841b811660805291831b821660a05290911b1660c05262000209565b6001600160a01b038116331415620001515760405162461bcd60e51b815260206004820152601760248201527f43616e6e6f74207472616e7366657220746f2073656c66000000000000000000604482015260640162000082565b600180546001600160a01b0319166001600160a01b0383811691821790925560008054604051929316917fed8889f560326eb138920d842192f0eb3dd22b4f139c87a2c57538e05bae12789190a350565b80516001600160a01b0381168114620001ba57600080fd5b919050565b600080600060608486031215620001d557600080fd5b620001e084620001a2565b9250620001f060208501620001a2565b91506200020060408501620001a2565b90509250925092565b60805160601c60a05160601c60c05160601c6145fe620002816000396000818161155f0152818161160a01528181611c600152611d0b015260008181610497015261366e0152600081816102db01528181610fa10152818161204e01528181612a3f01528181612b76015261324601526145fe6000f3fe608060405234801561001057600080fd5b50600436106102405760003560e01c80638456cb5911610145578063b2a489ff116100bd578063e82ad7d41161008c578063f1e14a2111610071578063f1e14a2114610563578063f2fde38b1461057a578063fa00763a1461058d57600080fd5b8063e82ad7d41461053d578063ee56997b1461055057600080fd5b8063b2a489ff146104b9578063c3f909d4146104cc578063d7ae1d3014610517578063e72f6e301461052a57600080fd5b8063a21a23e411610114578063a4c0ed36116100f9578063a4c0ed361461046c578063a9d03c051461047f578063ad1783611461049257600080fd5b8063a21a23e414610442578063a47c76961461044a57600080fd5b80638456cb59146103eb5780638da5cb5b146103f35780639f87fad714610404578063a1a6d0411461041757600080fd5b806333652e3e116101d857806366316d8d116101a75780637341c10c1161018c5780637341c10c146103bd57806379ba5097146103d057806382359740146103d857600080fd5b806366316d8d14610397578063665871ec146103aa57600080fd5b806333652e3e1461033d5780633f4ba83a146103625780635c975abb1461036a57806364d51a2a1461037c57600080fd5b806312b583491161021457806312b58349146102af5780631b6b6d23146102d65780632408afaa1461031557806327923e411461032a57600080fd5b80620122911461024557806302bcc5b61461026457806304c357cb146102795780630739e4f11461028c575b600080fd5b61024d6105a0565b60405161025b9291906143a5565b60405180910390f35b61027761027236600461409d565b6105bf565b005b6102776102873660046140b8565b610615565b61029f61029a366004613dbb565b610769565b604051901515815260200161025b565b6008546801000000000000000090046001600160601b03165b60405190815260200161025b565b6102fd7f000000000000000000000000000000000000000000000000000000000000000081565b6040516001600160a01b03909116815260200161025b565b61031d610cf2565b60405161025b9190614223565b610277610338366004614037565b610d54565b6008546001600160401b03165b6040516001600160401b03909116815260200161025b565b610277610e61565b600154600160a01b900460ff1661029f565b610384606481565b60405161ffff909116815260200161025b565b6102776103a5366004613d21565b610e73565b6102776103b8366004613d58565b611079565b6102776103cb3660046140b8565b6112a4565b610277611478565b6102776103e636600461409d565b611529565b6102776117f6565b6000546001600160a01b03166102fd565b6102776104123660046140b8565b611806565b61042a610425366004613fe6565b611b3a565b6040516001600160601b03909116815260200161025b565b61034a611c27565b61045d61045836600461409d565b611f25565b60405161025b939291906143cc565b61027761047a366004613cc8565b61200f565b6102c861048d366004613ee4565b612218565b6102fd7f000000000000000000000000000000000000000000000000000000000000000081565b6102fd6104c736600461409d565b6128ae565b600c54600d54600b54600e546040805163ffffffff8087168252650100000000009096048616602082015290810193909352606083019190915291909116608082015260a00161025b565b6102776105253660046140b8565b612912565b610277610538366004613cad565b612a06565b61029f61054b36600461409d565b612c3d565b61027761055e366004613d58565b612e36565b61042a610571366004613f42565b60009392505050565b610277610588366004613cad565b612f9c565b61029f61059b366004613cad565b612fb0565b600c5460009060609063ffffffff166105b7610cf2565b915091509091565b6105c7612fc3565b6001600160401b0381166000908152600660205260409020546001600160a01b03168061060757604051630fb532db60e11b815260040160405180910390fd5b610611828261301d565b5050565b6001600160401b03821660009081526006602052604090205482906001600160a01b03168061065757604051630fb532db60e11b815260040160405180910390fd5b336001600160a01b0382161461069057604051636c51fda960e11b81526001600160a01b03821660048201526024015b60405180910390fd5b600c54640100000000900460ff16156106bc5760405163769dd35360e11b815260040160405180910390fd5b6106c4613370565b6001600160401b0384166000908152600660205260409020600101546001600160a01b03848116911614610763576001600160401b03841660008181526006602090815260409182902060010180546001600160a01b0319166001600160a01b0388169081179091558251338152918201527f69436ea6df009049404f564eff6622cd00522b0bd6a89efd9e52a355c4a879be91015b60405180910390a25b50505050565b60006107736133ca565b600c54640100000000900460ff161561079f5760405163769dd35360e11b815260040160405180910390fd5b6107a7613370565b60008b8152600a602090815260409182902082516101208101845281546001600160401b03811682526801000000000000000081046001600160a01b0390811694830194909452600160e01b900463ffffffff169381019390935260018101546060840152600281015491821660808401819052600160a01b9092046001600160601b0390811660a0850152600382015480821660c0860152600160601b90041660e08401526004015461010083015261088d576040517fda7aa3e100000000000000000000000000000000000000000000000000000000815260040160405180910390fd5b60008c8152600a602052604080822082815560018101839055600281018390556003810180546001600160c01b0319169055600401829055517f0ca7617500000000000000000000000000000000000000000000000000000000906108fe908f908f908f908f908f90602401614236565b60408051601f19818403018152918152602080830180517bffffffffffffffffffffffffffffffffffffffffffffffffffffffff167fffffffff0000000000000000000000000000000000000000000000000000000090951694909417909352600c805464ff0000000019166401000000001790558401519184015190925061098e9163ffffffff1690836133f0565b600c805464ff0000000019169055600d5460a084015160c08501519295506000926109c092889290918b908b3a61343c565b60408082015185516001600160401b03166000908152600760205291909120549192506001600160601b0390811691161015610a0f57604051631e9acf1760e31b815260040160405180910390fd5b60408082015184516001600160401b031660009081526007602052918220805491929091610a479084906001600160601b03166144db565b92506101000a8154816001600160601b0302191690836001600160601b0316021790555060005b8760ff16811015610b3d57896001600160a01b03168982601f8110610a9557610a95614587565b60200201516001600160a01b031614610b2b578151600960008b84601f8110610ac057610ac0614587565b60200201516001600160a01b03166001600160a01b0316815260200190815260200160002060008282829054906101000a90046001600160601b0316610b069190614449565b92506101000a8154816001600160601b0302191690836001600160601b031602179055505b80610b3581614503565b915050610a6e565b508260c0015160096000610b596000546001600160a01b031690565b6001600160a01b03168152602081019190915260400160009081208054909190610b8d9084906001600160601b0316614449565b82546101009290920a6001600160601b038181021990931691831602179091556020838101516001600160a01b038d166000908152600990925260408220805491945092610bdd91859116614449565b82546101009290920a6001600160601b0381810219909316918316021790915560e085015185516001600160401b03166000908152600760205260409020805491935091600c91610c37918591600160601b9004166144db565b92506101000a8154816001600160601b0302191690836001600160601b031602179055508d7fc8dc973332de19a5f71b6026983110e9c2e04b0c98b87eb771ccb78607fd114f846000015183600001518460200151856040015189604051610cd99594939291906001600160401b039590951685526001600160601b039384166020860152918316604085015290911660608301521515608082015260a00190565b60405180910390a25050509a9950505050505050505050565b60606004805480602002602001604051908101604052809291908181526020018280548015610d4a57602002820191906000526020600020905b81546001600160a01b03168152600190910190602001808311610d2c575b5050505050905090565b610d5c612fc3565b60008313610d80576040516321ea67b360e11b815260048101849052602401610687565b6040805160c08101825263ffffffff888116808352600060208085019190915289831684860181905260608086018b9052888516608080880182905295891660a0978801819052600c805468ffffffffffffffffff19168717650100000000008602179055600d8d9055600e805467ffffffffffffffff19168317640100000000909202919091179055600b8b9055875194855292840191909152948201899052938101879052908101929092527f24d3d934adfef9b9029d6ffa463c07d0139ed47d26ee23506f85ece2879d2bd4910160405180910390a1505050505050565b610e69612fc3565b610e7161358d565b565b600c54640100000000900460ff1615610e9f5760405163769dd35360e11b815260040160405180910390fd5b610ea7613370565b6001600160601b038116610ed05750336000908152600960205260409020546001600160601b03165b336000908152600960205260409020546001600160601b0380831691161015610f0c57604051631e9acf1760e31b815260040160405180910390fd5b3360009081526009602052604081208054839290610f349084906001600160601b03166144db565b92506101000a8154816001600160601b0302191690836001600160601b03160217905550806008808282829054906101000a90046001600160601b0316610f7b91906144db565b92506101000a8154816001600160601b0302191690836001600160601b031602179055507f00000000000000000000000000000000000000000000000000000000000000006001600160a01b031663a9059cbb83836040518363ffffffff1660e01b815260040161100a9291906001600160a01b039290921682526001600160601b0316602082015260400190565b602060405180830381600087803b15801561102457600080fd5b505af1158015611038573d6000803e3d6000fd5b505050506040513d601f19601f8201168201806040525081019061105c9190613d99565b61061157604051631e9acf1760e31b815260040160405180910390fd5b60005b8181101561129f57600083838381811061109857611098614587565b602090810292909201356000818152600a8452604080822081516101208101835281546001600160401b0381168083526801000000000000000082046001600160a01b03908116848b0152600160e01b90920463ffffffff16838601526001840154606084015260028401548083166080850152600160a01b90046001600160601b0390811660a0850152600385015480821660c0860152600160601b90041660e0840152600490930154610100830152918452600690965291205491945016331490506111a05780516001600160401b031660009081526006602052604090819020549051636c51fda960e11b81526001600160a01b039091166004820152602401610687565b600e5461010082015142916111c49164010000000090910463ffffffff1690614406565b111561128a5760e081015181516001600160401b031660009081526007602052604090208054600c90611208908490600160601b90046001600160601b03166144db565b82546001600160601b039182166101009390930a9283029190920219909116179055506000828152600a602052604080822082815560018101839055600281018390556003810180546001600160c01b03191690556004018290555183917ff1ca1e9147be737b04a2b018a79405f687a97de8dd8a2559bbe62357343af41491a25b5050808061129790614503565b91505061107c565b505050565b6001600160401b03821660009081526006602052604090205482906001600160a01b0316806112e657604051630fb532db60e11b815260040160405180910390fd5b336001600160a01b0382161461131a57604051636c51fda960e11b81526001600160a01b0382166004820152602401610687565b600c54640100000000900460ff16156113465760405163769dd35360e11b815260040160405180910390fd5b61134e613370565b6001600160401b038416600090815260066020526040902060020154606414156113a4576040517f05a48e0f00000000000000000000000000000000000000000000000000000000815260040160405180910390fd5b6001600160a01b03831660009081526005602090815260408083206001600160401b03808916855292529091205416156113dd57610763565b6001600160a01b03831660008181526005602090815260408083206001600160401b038916808552908352818420805467ffffffffffffffff19166001908117909155600684528285206002018054918201815585529383902090930180546001600160a01b031916851790555192835290917f43dc749a04ac8fb825cbd514f7c0e13f13bc6f2ee66043b76629d51776cff8e0910161075a565b6001546001600160a01b031633146114d25760405162461bcd60e51b815260206004820152601660248201527f4d7573742062652070726f706f736564206f776e6572000000000000000000006044820152606401610687565b60008054336001600160a01b0319808316821784556001805490911690556040516001600160a01b0390921692909183917f8be0079c531659141344cd1fd0a4f28419497f9722a3daafe3b4186f6b6457e091a350565b600c54640100000000900460ff16156115555760405163769dd35360e11b815260040160405180910390fd5b61155d613370565b7f00000000000000000000000000000000000000000000000000000000000000006001600160a01b0316634b4fa0c16040518163ffffffff1660e01b815260040160206040518083038186803b1580156115b657600080fd5b505afa1580156115ca573d6000803e3d6000fd5b505050506040513d601f19601f820116820180604052508101906115ee9190613d99565b801561168e5750604051637d003b1d60e11b81523360048201527f00000000000000000000000000000000000000000000000000000000000000006001600160a01b03169063fa00763a9060240160206040518083038186803b15801561165457600080fd5b505afa158015611668573d6000803e3d6000fd5b505050506040513d601f19601f8201168201806040525081019061168c9190613d99565b155b156116ac57604051630101292160e31b815260040160405180910390fd5b6001600160401b0381166000908152600660205260409020546001600160a01b03166116eb57604051630fb532db60e11b815260040160405180910390fd5b6001600160401b0381166000908152600660205260409020600101546001600160a01b03163314611771576001600160401b038116600090815260066020526040908190206001015490517fd084e9750000000000000000000000000000000000000000000000000000000081526001600160a01b039091166004820152602401610687565b6001600160401b0381166000818152600660209081526040918290208054336001600160a01b0319808316821784556001909301805490931690925583516001600160a01b03909116808252928101919091529092917f6f1dc65165ffffedfd8e507b4a0f1fcfdada045ed11f6c26ba27cedfe87802f0910160405180910390a25050565b6117fe612fc3565b610e716135e2565b6001600160401b03821660009081526006602052604090205482906001600160a01b03168061184857604051630fb532db60e11b815260040160405180910390fd5b336001600160a01b0382161461187c57604051636c51fda960e11b81526001600160a01b0382166004820152602401610687565b600c54640100000000900460ff16156118a85760405163769dd35360e11b815260040160405180910390fd5b6118b0613370565b6001600160a01b03831660009081526005602090815260408083206001600160401b0380891685529252909120541661191657604051637800cff360e11b81526001600160401b03851660048201526001600160a01b0384166024820152604401610687565b6001600160401b03841660009081526006602090815260408083206002018054825181850281018501909352808352919290919083018282801561198357602002820191906000526020600020905b81546001600160a01b03168152600190910190602001808311611965575b5050505050905060006001825161199a91906144c4565b905060005b8251811015611ac157856001600160a01b03168382815181106119c4576119c4614587565b60200260200101516001600160a01b03161415611aaf5760008383815181106119ef576119ef614587565b6020026020010151905080600660008a6001600160401b03166001600160401b031681526020019081526020016000206002018381548110611a3357611a33614587565b600091825260208083209190910180546001600160a01b0319166001600160a01b0394909416939093179092556001600160401b038a168152600690915260409020600201805480611a8757611a87614571565b600082815260209020810160001990810180546001600160a01b031916905501905550611ac1565b80611ab981614503565b91505061199f565b506001600160a01b03851660008181526005602090815260408083206001600160401b038b1680855290835292819020805467ffffffffffffffff191690555192835290917f182bff9831466789164ca77075fffd84916d35a8180ba73c27e45634549b445b91015b60405180910390a2505050505050565b600080611b45613625565b905060008113611b6b576040516321ea67b360e11b815260048101829052602401610687565b600d54600e5460009163ffffffff808a1692611b88929116614406565b611b929190614406565b905060008282611baa89670de0b6b3a76400006144a5565b611bb491906144a5565b611bbe919061446b565b90506000611bd86001600160601b03808816908916614406565b9050611bf0816b033b2e3c9fd0803ce80000006144c4565b821115611c105760405163e80fa38160e01b815260040160405180910390fd5b611c1a8183614406565b9998505050505050505050565b600c54600090640100000000900460ff1615611c565760405163769dd35360e11b815260040160405180910390fd5b611c5e613370565b7f00000000000000000000000000000000000000000000000000000000000000006001600160a01b0316634b4fa0c16040518163ffffffff1660e01b815260040160206040518083038186803b158015611cb757600080fd5b505afa158015611ccb573d6000803e3d6000fd5b505050506040513d601f19601f82011682018060405250810190611cef9190613d99565b8015611d8f5750604051637d003b1d60e11b81523360048201527f00000000000000000000000000000000000000000000000000000000000000006001600160a01b03169063fa00763a9060240160206040518083038186803b158015611d5557600080fd5b505afa158015611d69573d6000803e3d6000fd5b505050506040513d601f19601f82011682018060405250810190611d8d9190613d99565b155b15611dad57604051630101292160e31b815260040160405180910390fd5b600880546001600160401b0316906000611dc68361451e565b82546101009290920a6001600160401b03818102199093169183160217909155600854169050600080604051908082528060200260200182016040528015611e18578160200160208202803683370190505b50604080518082018252600080825260208083018281526001600160401b038816808452600783528584209451855492516001600160601b03908116600160601b026001600160c01b03199094169116179190911790935583516060810185523381528082018381528186018781529484526006835294909220825181546001600160a01b039182166001600160a01b0319918216178355955160018301805491909216961695909517909455915180519495509093611ede9260028501920190613a54565b50506040513381526001600160401b03841691507f464722b4166576d3dcbba877b999bc35cf911f4eaf434b7eba68fa113951d0bf9060200160405180910390a250905090565b6001600160401b03811660009081526006602052604081205481906060906001600160a01b0316611f6957604051630fb532db60e11b815260040160405180910390fd5b6001600160401b03841660009081526007602090815260408083205460068352928190208054600290910180548351818602810186019094528084526001600160601b03909516946001600160a01b03909216939092918391830182828015611ffb57602002820191906000526020600020905b81546001600160a01b03168152600190910190602001808311611fdd575b505050505090509250925092509193909250565b600c54640100000000900460ff161561203b5760405163769dd35360e11b815260040160405180910390fd5b612043613370565b336001600160a01b037f000000000000000000000000000000000000000000000000000000000000000016146120a5576040517f44b0e3c300000000000000000000000000000000000000000000000000000000815260040160405180910390fd5b602081146120df576040517f8129bbcd00000000000000000000000000000000000000000000000000000000815260040160405180910390fd5b60006120ed8284018461409d565b6001600160401b0381166000908152600660205260409020549091506001600160a01b031661212f57604051630fb532db60e11b815260040160405180910390fd5b6001600160401b038116600090815260076020526040812080546001600160601b0316918691906121608385614449565b92506101000a8154816001600160601b0302191690836001600160601b03160217905550846008808282829054906101000a90046001600160601b03166121a79190614449565b92506101000a8154816001600160601b0302191690836001600160601b03160217905550816001600160401b03167fd39ec07f4e209f627a4c427971473820dc129761ba28de8906bd56f57101d4f88287846122039190614406565b60408051928352602083019190915201611b2a565b60006122226133ca565b600c54640100000000900460ff161561224e5760405163769dd35360e11b815260040160405180910390fd5b612256613370565b6000600681612268602086018661409d565b6001600160401b031681526020810191909152604001600020546001600160a01b031614156122aa57604051630fb532db60e11b815260040160405180910390fd5b60006005816122bf6040860160208701613cad565b6001600160a01b031681526020808201929092526040016000908120916122e89086018661409d565b6001600160401b0390811682526020820192909252604001600020541690508061235c57612319602084018461409d565b6123296040850160208601613cad565b604051637800cff360e11b81526001600160401b0390921660048301526001600160a01b03166024820152604401610687565b600c5463ffffffff166123756060850160408601613fcb565b63ffffffff1611156123d6576123916060840160408501613fcb565b600c546040517ff5d7e01e00000000000000000000000000000000000000000000000000000000815263ffffffff928316600482015291166024820152604401610687565b6040517ff1e14a21000000000000000000000000000000000000000000000000000000008152600090339063f1e14a21906124199089908990899060040161426f565b60206040518083038186803b15801561243157600080fd5b505afa158015612445573d6000803e3d6000fd5b505050506040513d601f19601f82011682018060405250810190612469919061413b565b90506000612481878761057136899003890189613f96565b905060006124a46124986060880160408901613fcb565b87606001358585611b3a565b905060006007816124b860208a018a61409d565b6001600160401b03168152602080820192909252604001600090812054600160601b90046001600160601b031691600791906124f6908b018b61409d565b6001600160401b0316815260208101919091526040016000205461252391906001600160601b03166144db565b9050816001600160601b0316816001600160601b0316101561255857604051631e9acf1760e31b815260040160405180910390fd5b600061256586600161441e565b905060006125df3361257d60408c0160208d01613cad565b61258a60208d018d61409d565b85604080516001600160a01b0395861660208083019190915294909516858201526001600160401b03928316606086015291166080808501919091528151808503909101815260a09093019052815191012090565b604080516101208101909152909150600090806125ff60208d018d61409d565b6001600160401b031681526020018b60200160208101906126209190613cad565b6001600160a01b0316815260200161263e60608d0160408e01613fcb565b63ffffffff90811682526060808e0135602080850191909152336040808601919091526001600160601b03808e16848701528c81166080808801919091528c821660a0808901919091524260c09889015260008b8152600a86528481208a5181548c890151978d0151909a16600160e01b027bffffffffffffffffffffffffffffffffffffffffffffffffffffffff6001600160a01b0398891668010000000000000000027fffffffff00000000000000000000000000000000000000000000000000000000909c166001600160401b03909316929092179a909a171698909817885595890151600188015590880151908801518216600160a01b0292169190911760028501559385015160038401805460e08801518716600160601b026001600160c01b0319909116929096169190911794909417909355610100840151600490920191909155919250869160079161279a908e018e61409d565b6001600160401b0316815260208101919091526040016000208054600c906127d3908490600160601b90046001600160601b0316614449565b92506101000a8154816001600160601b0302191690836001600160601b03160217905550817f99f7f4e65b4b9fbabd4e357c47ed3099b36e57ecd3a43e84662f34c207d0ebe48260405161282791906142df565b60405180910390a2826005600061284460408e0160208f01613cad565b6001600160a01b0316815260208082019290925260400160009081209161286d908e018e61409d565b6001600160401b0390811682526020820192909252604001600020805467ffffffffffffffff191692909116919091179055509a9950505050505050505050565b6001600160401b0381166000908152600660205260408120546001600160a01b03166128ed57604051630fb532db60e11b815260040160405180910390fd5b506001600160401b03166000908152600660205260409020546001600160a01b031690565b6001600160401b03821660009081526006602052604090205482906001600160a01b03168061295457604051630fb532db60e11b815260040160405180910390fd5b336001600160a01b0382161461298857604051636c51fda960e11b81526001600160a01b0382166004820152602401610687565b600c54640100000000900460ff16156129b45760405163769dd35360e11b815260040160405180910390fd5b6129bc613370565b6129c584612c3d565b156129fc576040517fb42f66e800000000000000000000000000000000000000000000000000000000815260040160405180910390fd5b610763848461301d565b612a0e612fc3565b6040517f70a082310000000000000000000000000000000000000000000000000000000081523060048201526000907f00000000000000000000000000000000000000000000000000000000000000006001600160a01b0316906370a082319060240160206040518083038186803b158015612a8957600080fd5b505afa158015612a9d573d6000803e3d6000fd5b505050506040513d601f19601f82011682018060405250810190612ac19190613fb2565b6008549091506801000000000000000090046001600160601b031681811115612b20576040517fa99da3020000000000000000000000000000000000000000000000000000000081526004810182905260248101839052604401610687565b8181101561129f576000612b3482846144c4565b6040517fa9059cbb0000000000000000000000000000000000000000000000000000000081526001600160a01b038681166004830152602482018390529192507f00000000000000000000000000000000000000000000000000000000000000009091169063a9059cbb90604401602060405180830381600087803b158015612bbc57600080fd5b505af1158015612bd0573d6000803e3d6000fd5b505050506040513d601f19601f82011682018060405250810190612bf49190613d99565b50604080516001600160a01b0386168152602081018390527f59bfc682b673f8cbf945f1e454df9334834abf7dfe7f92237ca29ecb9b436600910160405180910390a150505050565b6001600160401b038116600090815260066020908152604080832060020180548251818502810185019093528083528493830182828015612ca757602002820191906000526020600020905b81546001600160a01b03168152600190910190602001808311612c89575b505050505090506000612cb8610cf2565b905060005b8251811015612e2b5760005b8251811015612e18576000612dd5848381518110612ce957612ce9614587565b6020026020010151868581518110612d0357612d03614587565b602002602001015189600560008a8981518110612d2257612d22614587565b60200260200101516001600160a01b03166001600160a01b0316815260200190815260200160002060008c6001600160401b03166001600160401b0316815260200190815260200160002060009054906101000a90046001600160401b0316604080516001600160a01b0395861660208083019190915294909516858201526001600160401b03928316606086015291166080808501919091528151808503909101815260a09093019052815191012090565b6000818152600a60205260409020600201549091506001600160a01b031615612e05575060019695505050505050565b5080612e1081614503565b915050612cc9565b5080612e2381614503565b915050612cbd565b506000949350505050565b612e3e613729565b612e74576040517fad77f06100000000000000000000000000000000000000000000000000000000815260040160405180910390fd5b80612eab576040517f75158c3b00000000000000000000000000000000000000000000000000000000815260040160405180910390fd5b60005b600454811015612efe57612eeb60048281548110612ece57612ece614587565b6000918252602090912001546002906001600160a01b0316613739565b5080612ef681614503565b915050612eae565b5060005b81811015612f4f57612f3c838383818110612f1f57612f1f614587565b9050602002016020810190612f349190613cad565b600290613755565b5080612f4781614503565b915050612f02565b50612f5c60048383613ab5565b507ff263cfb3e4298332e776194610cf9fdc09ccb3ada8b9aa39764d882e11fbf0a0828233604051612f90939291906141c5565b60405180910390a15050565b612fa4612fc3565b612fad8161376a565b50565b6000612fbd600283613814565b92915050565b6000546001600160a01b03163314610e715760405162461bcd60e51b815260206004820152601660248201527f4f6e6c792063616c6c61626c65206279206f776e6572000000000000000000006044820152606401610687565b600c54640100000000900460ff16156130495760405163769dd35360e11b815260040160405180910390fd5b6001600160401b0382166000908152600660209081526040808320815160608101835281546001600160a01b039081168252600183015416818501526002820180548451818702810187018652818152929593948601938301828280156130d957602002820191906000526020600020905b81546001600160a01b031681526001909101906020018083116130bb575b505050919092525050506001600160401b0384166000908152600760205260408120549192506001600160601b03909116905b82604001515181101561318d57600560008460400151838151811061313357613133614587565b6020908102919091018101516001600160a01b0316825281810192909252604090810160009081206001600160401b03891682529092529020805467ffffffffffffffff191690558061318581614503565b91505061310c565b506001600160401b038416600090815260066020526040812080546001600160a01b031990811682556001820180549091169055906131cf6002830182613b08565b50506001600160401b038416600090815260076020526040902080546001600160c01b03191690556008805482919081906132209084906801000000000000000090046001600160601b03166144db565b92506101000a8154816001600160601b0302191690836001600160601b031602179055507f00000000000000000000000000000000000000000000000000000000000000006001600160a01b031663a9059cbb84836001600160601b03166040518363ffffffff1660e01b81526004016132af9291906001600160a01b03929092168252602082015260400190565b602060405180830381600087803b1580156132c957600080fd5b505af11580156132dd573d6000803e3d6000fd5b505050506040513d601f19601f820116820180604052508101906133019190613d99565b61331e57604051631e9acf1760e31b815260040160405180910390fd5b604080516001600160a01b03851681526001600160601b03831660208201526001600160401b038616917fe8ed5b475a5b5987aa9165e8731bb78043f39eee32ec5a1169a89e27fcd49815910161075a565b600154600160a01b900460ff1615610e715760405162461bcd60e51b815260206004820152601060248201527f5061757361626c653a20706175736564000000000000000000000000000000006044820152606401610687565b6133d333612fb0565b610e7157604051630101292160e31b815260040160405180910390fd5b60005a61138881101561340257600080fd5b61138881039050846040820482031161341a57600080fd5b50823b61342657600080fd5b60008083516020850160008789f1949350505050565b6040805160608101825260008082526020820181905291810182905290613461613625565b905060008113613487576040516321ea67b360e11b815260048101829052602401610687565b6000815a8b6134968c89614406565b6134a09190614406565b6134aa91906144c4565b6134bc86670de0b6b3a76400006144a5565b6134c691906144a5565b6134d0919061446b565b905060006134ea6001600160601b03808916908b16614406565b9050613502816b033b2e3c9fd0803ce80000006144c4565b8211156135225760405163e80fa38160e01b815260040160405180910390fd5b600061353160ff8a168b61447f565b9050600061353f8285614449565b905060006135556135508587614406565b613836565b604080516060810182526001600160601b03958616815293851660208501529316928201929092529c9b505050505050505050505050565b6135956138b9565b6001805460ff60a01b191690557f5db9ee0a495bf2e6ff9c91a7834c1ba4fdd244a5e8aa4e537bd38aeae4b073aa335b6040516001600160a01b03909116815260200160405180910390a1565b6135ea613370565b6001805460ff60a01b1916600160a01b1790557f62e78cea01bee320cd4e420270b5ea74000d11b0c9f74754ebdbfc544b05a2586135c53390565b600c54604080517ffeaf968c000000000000000000000000000000000000000000000000000000008152905160009265010000000000900463ffffffff169182151591849182917f00000000000000000000000000000000000000000000000000000000000000006001600160a01b03169163feaf968c9160048083019260a0929190829003018186803b1580156136bc57600080fd5b505afa1580156136d0573d6000803e3d6000fd5b505050506040513d601f19601f820116820180604052508101906136f491906140eb565b50935050925050828015613716575061370d81426144c4565b8463ffffffff16105b1561372157600b5491505b509392505050565b6000613733612fc3565b50600190565b600061374e836001600160a01b038416613912565b9392505050565b600061374e836001600160a01b038416613a05565b6001600160a01b0381163314156137c35760405162461bcd60e51b815260206004820152601760248201527f43616e6e6f74207472616e7366657220746f2073656c660000000000000000006044820152606401610687565b600180546001600160a01b0319166001600160a01b0383811691821790925560008054604051929316917fed8889f560326eb138920d842192f0eb3dd22b4f139c87a2c57538e05bae12789190a350565b6001600160a01b0381166000908152600183016020526040812054151561374e565b60006001600160601b038211156138b55760405162461bcd60e51b815260206004820152602660248201527f53616665436173743a2076616c756520646f65736e27742066697420696e203960448201527f36206269747300000000000000000000000000000000000000000000000000006064820152608401610687565b5090565b600154600160a01b900460ff16610e715760405162461bcd60e51b815260206004820152601460248201527f5061757361626c653a206e6f74207061757365640000000000000000000000006044820152606401610687565b600081815260018301602052604081205480156139fb5760006139366001836144c4565b855490915060009061394a906001906144c4565b90508181146139af57600086600001828154811061396a5761396a614587565b906000526020600020015490508087600001848154811061398d5761398d614587565b6000918252602080832090910192909255918252600188019052604090208390555b85548690806139c0576139c0614571565b600190038181906000526020600020016000905590558560010160008681526020019081526020016000206000905560019350505050612fbd565b6000915050612fbd565b6000818152600183016020526040812054613a4c57508154600181810184556000848152602080822090930184905584548482528286019093526040902091909155612fbd565b506000612fbd565b828054828255906000526020600020908101928215613aa9579160200282015b82811115613aa957825182546001600160a01b0319166001600160a01b03909116178255602090920191600190910190613a74565b506138b5929150613b22565b828054828255906000526020600020908101928215613aa9579160200282015b82811115613aa95781546001600160a01b0319166001600160a01b03843516178255602090920191600190910190613ad5565b5080546000825590600052602060002090810190612fad91905b5b808211156138b55760008155600101613b23565b80356001600160a01b0381168114613b4e57600080fd5b919050565b60008083601f840112613b6557600080fd5b5081356001600160401b03811115613b7c57600080fd5b6020830191508360208260051b8501011115613b9757600080fd5b9250929050565b60008083601f840112613bb057600080fd5b5081356001600160401b03811115613bc757600080fd5b602083019150836020828501011115613b9757600080fd5b600060808284031215613bf157600080fd5b604051608081018181106001600160401b0382111715613c1357613c1361459d565b604052905080613c2283613c6b565b8152613c3060208401613b37565b6020820152613c4160408401613c57565b6040820152606083013560608201525092915050565b803563ffffffff81168114613b4e57600080fd5b80356001600160401b0381168114613b4e57600080fd5b803560ff81168114613b4e57600080fd5b805169ffffffffffffffffffff81168114613b4e57600080fd5b600060208284031215613cbf57600080fd5b61374e82613b37565b60008060008060608587031215613cde57600080fd5b613ce785613b37565b93506020850135925060408501356001600160401b03811115613d0957600080fd5b613d1587828801613b9e565b95989497509550505050565b60008060408385031215613d3457600080fd5b613d3d83613b37565b91506020830135613d4d816145b3565b809150509250929050565b60008060208385031215613d6b57600080fd5b82356001600160401b03811115613d8157600080fd5b613d8d85828601613b53565b90969095509350505050565b600060208284031215613dab57600080fd5b8151801515811461374e57600080fd5b6000806000806000806000806000806104c08b8d031215613ddb57600080fd5b8a35995060208b01356001600160401b0380821115613df957600080fd5b613e058e838f01613b9e565b909b50995060408d0135915080821115613e1e57600080fd5b613e2a8e838f01613b9e565b9099509750879150613e3e60608e01613b37565b96508d609f8e0112613e4f57600080fd5b60405191506103e082018281108282111715613e6d57613e6d61459d565b604052508060808d016104608e018f811115613e8857600080fd5b60005b601f811015613eb257613e9d83613b37565b84526020938401939290920191600101613e8b565b50839750613ebf81613c82565b9650505050506104808b013591506104a08b013590509295989b9194979a5092959850565b600080600083850360a0811215613efa57600080fd5b84356001600160401b03811115613f1057600080fd5b613f1c87828801613b9e565b9095509350506080601f1982011215613f3457600080fd5b506020840190509250925092565b600080600060a08486031215613f5757600080fd5b83356001600160401b03811115613f6d57600080fd5b613f7986828701613b9e565b9094509250613f8d90508560208601613bdf565b90509250925092565b600060808284031215613fa857600080fd5b61374e8383613bdf565b600060208284031215613fc457600080fd5b5051919050565b600060208284031215613fdd57600080fd5b61374e82613c57565b60008060008060808587031215613ffc57600080fd5b61400585613c57565b935060208501359250604085013561401c816145b3565b9150606085013561402c816145b3565b939692955090935050565b60008060008060008060c0878903121561405057600080fd5b61405987613c57565b955061406760208801613c57565b9450604087013593506060870135925061408360808801613c57565b915061409160a08801613c57565b90509295509295509295565b6000602082840312156140af57600080fd5b61374e82613c6b565b600080604083850312156140cb57600080fd5b6140d483613c6b565b91506140e260208401613b37565b90509250929050565b600080600080600060a0868803121561410357600080fd5b61410c86613c93565b945060208601519350604086015192506060860151915061412f60808701613c93565b90509295509295909350565b60006020828403121561414d57600080fd5b815161374e816145b3565b600081518084526020808501945080840160005b838110156141915781516001600160a01b03168752958201959082019060010161416c565b509495945050505050565b81835281816020850137506000828201602090810191909152601f909101601f19169091010190565b6040808252810183905260008460608301825b86811015614206576001600160a01b036141f184613b37565b168252602092830192909101906001016141d8565b5080925050506001600160a01b0383166020830152949350505050565b60208152600061374e6020830184614158565b85815260606020820152600061425060608301868861419c565b828103604084015261426381858761419c565b98975050505050505050565b60a08152600061428360a08301858761419c565b90506001600160401b0361429684613c6b565b1660208301526001600160a01b036142b060208501613b37565b16604083015263ffffffff6142c760408501613c57565b16606083015260608301356080830152949350505050565b6000610120820190506001600160401b0383511682526001600160a01b036020840151166020830152604083015161431f604084018263ffffffff169052565b5060608301516060830152608083015161434460808401826001600160a01b03169052565b5060a083015161435f60a08401826001600160601b03169052565b5060c083015161437a60c08401826001600160601b03169052565b5060e083015161439560e08401826001600160601b03169052565b5061010092830151919092015290565b63ffffffff831681526040602082015260006143c46040830184614158565b949350505050565b6001600160601b03841681526001600160a01b03831660208201526060604082015260006143fd6060830184614158565b95945050505050565b6000821982111561441957614419614545565b500190565b60006001600160401b0380831681851680830382111561444057614440614545565b01949350505050565b60006001600160601b0380831681851680830382111561444057614440614545565b60008261447a5761447a61455b565b500490565b60006001600160601b03808416806144995761449961455b565b92169190910492915050565b60008160001904831182151516156144bf576144bf614545565b500290565b6000828210156144d6576144d6614545565b500390565b60006001600160601b03838116908316818110156144fb576144fb614545565b039392505050565b600060001982141561451757614517614545565b5060010190565b60006001600160401b038083168181141561453b5761453b614545565b6001019392505050565b634e487b7160e01b600052601160045260246000fd5b634e487b7160e01b600052601260045260246000fd5b634e487b7160e01b600052603160045260246000fd5b634e487b7160e01b600052603260045260246000fd5b634e487b7160e01b600052604160045260246000fd5b6001600160601b0381168114612fad57600080fdfea2646970667358221220b6bd5b2ba50461280c7c864633fb0bbf1b99942b261f89be6fb791a993195b9b64736f6c63430008070033",
  "linkReferences": {},
  "deployedLinkReferences": {}
}