{
  "_format": "hh-sol-artifact-1",
  "contractName": "FunctionsOracle",
  "sourceName": "contracts/dev/functions/FunctionsOracle.sol",
  "abi": [
    {
      "inputs": [],
      "stateMutability": "nonpayable",
      "type": "constructor"
    },
    {
      "inputs": [],
      "name": "AlreadySet",
      "type": "error"
    },
    {
      "inputs": [],
      "name": "EmptyBillingRegistry",
      "type": "error"
    },
    {
      "inputs": [],
      "name": "EmptyPublicKey",
      "type": "error"
    },
    {
      "inputs": [],
      "name": "EmptyRequestData",
      "type": "error"
    },
    {
      "inputs": [],
      "name": "EmptySendersList",
      "type": "error"
    },
    {
      "inputs": [],
      "name": "InconsistentReportData",
      "type": "error"
    },
    {
      "inputs": [],
      "name": "InvalidRequestID",
      "type": "error"
    },
    {
      "inputs": [],
      "name": "NotAllowedToSetSenders",
      "type": "error"
    },
    {
      "inputs": [],
      "name": "ReportInvalid",
      "type": "error"
    },
    {
      "inputs": [],
      "name": "UnauthorizedPublicKeyChange",
      "type": "error"
    },
    {
      "inputs": [],
      "name": "UnauthorizedSender",
      "type": "error"
    },
    {
      "anonymous": false,
      "inputs": [
        {
          "indexed": false,
          "internalType": "address",
          "name": "account",
          "type": "address"
        }
      ],
      "name": "AuthorizedSendersActive",
      "type": "event"
    },
    {
      "anonymous": false,
      "inputs": [
        {
          "indexed": false,
          "internalType": "address[]",
          "name": "senders",
          "type": "address[]"
        },
        {
          "indexed": false,
          "internalType": "address",
          "name": "changedBy",
          "type": "address"
        }
      ],
      "name": "AuthorizedSendersChanged",
      "type": "event"
    },
    {
      "anonymous": false,
      "inputs": [
        {
          "indexed": false,
          "internalType": "address",
          "name": "account",
          "type": "address"
        }
      ],
      "name": "AuthorizedSendersDeactive",
      "type": "event"
    },
    {
      "anonymous": false,
      "inputs": [
        {
          "indexed": false,
          "internalType": "uint32",
          "name": "previousConfigBlockNumber",
          "type": "uint32"
        },
        {
          "indexed": false,
          "internalType": "bytes32",
          "name": "configDigest",
          "type": "bytes32"
        },
        {
          "indexed": false,
          "internalType": "uint64",
          "name": "configCount",
          "type": "uint64"
        },
        {
          "indexed": false,
          "internalType": "address[]",
          "name": "signers",
          "type": "address[]"
        },
        {
          "indexed": false,
          "internalType": "address[]",
          "name": "transmitters",
          "type": "address[]"
        },
        {
          "indexed": false,
          "internalType": "uint8",
          "name": "f",
          "type": "uint8"
        },
        {
          "indexed": false,
          "internalType": "bytes",
          "name": "onchainConfig",
          "type": "bytes"
        },
        {
          "indexed": false,
          "internalType": "uint64",
          "name": "offchainConfigVersion",
          "type": "uint64"
        },
        {
          "indexed": false,
          "internalType": "bytes",
          "name": "offchainConfig",
          "type": "bytes"
        }
      ],
      "name": "ConfigSet",
      "type": "event"
    },
    {
      "anonymous": false,
      "inputs": [
        {
          "indexed": true,
          "internalType": "bytes32",
          "name": "requestId",
          "type": "bytes32"
        },
        {
          "indexed": false,
          "internalType": "address",
          "name": "requestingContract",
          "type": "address"
        },
        {
          "indexed": false,
          "internalType": "address",
          "name": "requestInitiator",
          "type": "address"
        },
        {
          "indexed": false,
          "internalType": "uint64",
          "name": "subscriptionId",
          "type": "uint64"
        },
        {
          "indexed": false,
          "internalType": "address",
          "name": "subscriptionOwner",
          "type": "address"
        },
        {
          "indexed": false,
          "internalType": "bytes",
          "name": "data",
          "type": "bytes"
        }
      ],
      "name": "OracleRequest",
      "type": "event"
    },
    {
      "anonymous": false,
      "inputs": [
        {
          "indexed": true,
          "internalType": "bytes32",
          "name": "requestId",
          "type": "bytes32"
        }
      ],
      "name": "OracleResponse",
      "type": "event"
    },
    {
      "anonymous": false,
      "inputs": [
        {
          "indexed": true,
          "internalType": "address",
          "name": "from",
          "type": "address"
        },
        {
          "indexed": true,
          "internalType": "address",
          "name": "to",
          "type": "address"
        }
      ],
      "name": "OwnershipTransferRequested",
      "type": "event"
    },
    {
      "anonymous": false,
      "inputs": [
        {
          "indexed": true,
          "internalType": "address",
          "name": "from",
          "type": "address"
        },
        {
          "indexed": true,
          "internalType": "address",
          "name": "to",
          "type": "address"
        }
      ],
      "name": "OwnershipTransferred",
      "type": "event"
    },
    {
      "anonymous": false,
      "inputs": [
        {
          "indexed": false,
          "internalType": "bytes32",
          "name": "configDigest",
          "type": "bytes32"
        },
        {
          "indexed": false,
          "internalType": "uint32",
          "name": "epoch",
          "type": "uint32"
        }
      ],
      "name": "Transmitted",
      "type": "event"
    },
    {
      "anonymous": false,
      "inputs": [
        {
          "indexed": true,
          "internalType": "bytes32",
          "name": "requestId",
          "type": "bytes32"
        },
        {
          "indexed": false,
          "internalType": "string",
          "name": "reason",
          "type": "string"
        }
      ],
      "name": "UserCallbackError",
      "type": "event"
    },
    {
      "anonymous": false,
      "inputs": [
        {
          "indexed": true,
          "internalType": "bytes32",
          "name": "requestId",
          "type": "bytes32"
        },
        {
          "indexed": false,
          "internalType": "bytes",
          "name": "lowLevelData",
          "type": "bytes"
        }
      ],
      "name": "UserCallbackRawError",
      "type": "event"
    },
    {
      "inputs": [],
      "name": "acceptOwnership",
      "outputs": [],
      "stateMutability": "nonpayable",
      "type": "function"
    },
    {
      "inputs": [],
      "name": "activateAuthorizedReceiver",
      "outputs": [],
      "stateMutability": "nonpayable",
      "type": "function"
    },
    {
      "inputs": [
        {
          "internalType": "address[]",
          "name": "senders",
          "type": "address[]"
        }
      ],
      "name": "addAuthorizedSenders",
      "outputs": [],
      "stateMutability": "nonpayable",
      "type": "function"
    },
    {
      "inputs": [],
      "name": "authorizedReceiverActive",
      "outputs": [
        {
          "internalType": "bool",
          "name": "",
          "type": "bool"
        }
      ],
      "stateMutability": "view",
      "type": "function"
    },
    {
      "inputs": [],
      "name": "deactivateAuthorizedReceiver",
      "outputs": [],
      "stateMutability": "nonpayable",
      "type": "function"
    },
    {
      "inputs": [
        {
          "internalType": "address",
          "name": "node",
          "type": "address"
        }
      ],
      "name": "deleteNodePublicKey",
      "outputs": [],
      "stateMutability": "nonpayable",
      "type": "function"
    },
    {
      "inputs": [
        {
          "internalType": "uint64",
          "name": "subscriptionId",
          "type": "uint64"
        },
        {
          "internalType": "bytes",
          "name": "data",
          "type": "bytes"
        },
        {
          "internalType": "uint32",
          "name": "gasLimit",
          "type": "uint32"
        },
        {
          "internalType": "uint256",
          "name": "gasPrice",
          "type": "uint256"
        }
      ],
      "name": "estimateCost",
      "outputs": [
        {
          "internalType": "uint96",
          "name": "",
          "type": "uint96"
        }
      ],
      "stateMutability": "view",
      "type": "function"
    },
    {
      "inputs": [],
      "name": "getAllNodePublicKeys",
      "outputs": [
        {
          "internalType": "address[]",
          "name": "",
          "type": "address[]"
        },
        {
          "internalType": "bytes[]",
          "name": "",
          "type": "bytes[]"
        }
      ],
      "stateMutability": "view",
      "type": "function"
    },
    {
      "inputs": [],
      "name": "getAuthorizedSenders",
      "outputs": [
        {
          "internalType": "address[]",
          "name": "",
          "type": "address[]"
        }
      ],
      "stateMutability": "view",
      "type": "function"
    },
    {
      "inputs": [],
      "name": "getDONPublicKey",
      "outputs": [
        {
          "internalType": "bytes",
          "name": "",
          "type": "bytes"
        }
      ],
      "stateMutability": "view",
      "type": "function"
    },
    {
      "inputs": [],
      "name": "getRegistry",
      "outputs": [
        {
          "internalType": "address",
          "name": "",
          "type": "address"
        }
      ],
      "stateMutability": "view",
      "type": "function"
    },
    {
      "inputs": [
        {
          "internalType": "bytes",
          "name": "",
          "type": "bytes"
        },
        {
          "components": [
            {
              "internalType": "uint64",
              "name": "subscriptionId",
              "type": "uint64"
            },
            {
              "internalType": "address",
              "name": "client",
              "type": "address"
            },
            {
              "internalType": "uint32",
              "name": "gasLimit",
              "type": "uint32"
            },
            {
              "internalType": "uint256",
              "name": "gasPrice",
              "type": "uint256"
            }
          ],
          "internalType": "struct FunctionsBillingRegistryInterface.RequestBilling",
          "name": "",
          "type": "tuple"
        }
      ],
      "name": "getRequiredFee",
      "outputs": [
        {
          "internalType": "uint96",
          "name": "",
          "type": "uint96"
        }
      ],
      "stateMutability": "pure",
      "type": "function"
    },
    {
      "inputs": [
        {
          "internalType": "address",
          "name": "sender",
          "type": "address"
        }
      ],
      "name": "isAuthorizedSender",
      "outputs": [
        {
          "internalType": "bool",
          "name": "",
          "type": "bool"
        }
      ],
      "stateMutability": "view",
      "type": "function"
    },
    {
      "inputs": [],
      "name": "latestConfigDetails",
      "outputs": [
        {
          "internalType": "uint32",
          "name": "configCount",
          "type": "uint32"
        },
        {
          "internalType": "uint32",
          "name": "blockNumber",
          "type": "uint32"
        },
        {
          "internalType": "bytes32",
          "name": "configDigest",
          "type": "bytes32"
        }
      ],
      "stateMutability": "view",
      "type": "function"
    },
    {
      "inputs": [],
      "name": "latestConfigDigestAndEpoch",
      "outputs": [
        {
          "internalType": "bool",
          "name": "scanLogs",
          "type": "bool"
        },
        {
          "internalType": "bytes32",
          "name": "configDigest",
          "type": "bytes32"
        },
        {
          "internalType": "uint32",
          "name": "epoch",
          "type": "uint32"
        }
      ],
      "stateMutability": "view",
      "type": "function"
    },
    {
      "inputs": [],
      "name": "owner",
      "outputs": [
        {
          "internalType": "address",
          "name": "",
          "type": "address"
        }
      ],
      "stateMutability": "view",
      "type": "function"
    },
    {
      "inputs": [
        {
          "internalType": "address[]",
          "name": "senders",
          "type": "address[]"
        }
      ],
      "name": "removeAuthorizedSenders",
      "outputs": [],
      "stateMutability": "nonpayable",
      "type": "function"
    },
    {
      "inputs": [
        {
          "internalType": "uint64",
          "name": "subscriptionId",
          "type": "uint64"
        },
        {
          "internalType": "bytes",
          "name": "data",
          "type": "bytes"
        },
        {
          "internalType": "uint32",
          "name": "gasLimit",
          "type": "uint32"
        },
        {
          "internalType": "uint256",
          "name": "gasPrice",
          "type": "uint256"
        }
      ],
      "name": "sendRequest",
      "outputs": [
        {
          "internalType": "bytes32",
          "name": "",
          "type": "bytes32"
        }
      ],
      "stateMutability": "nonpayable",
      "type": "function"
    },
    {
      "inputs": [
        {
          "internalType": "address[]",
          "name": "_signers",
          "type": "address[]"
        },
        {
          "internalType": "address[]",
          "name": "_transmitters",
          "type": "address[]"
        },
        {
          "internalType": "uint8",
          "name": "_f",
          "type": "uint8"
        },
        {
          "internalType": "bytes",
          "name": "_onchainConfig",
          "type": "bytes"
        },
        {
          "internalType": "uint64",
          "name": "_offchainConfigVersion",
          "type": "uint64"
        },
        {
          "internalType": "bytes",
          "name": "_offchainConfig",
          "type": "bytes"
        }
      ],
      "name": "setConfig",
      "outputs": [],
      "stateMutability": "nonpayable",
      "type": "function"
    },
    {
      "inputs": [
        {
          "internalType": "bytes",
          "name": "donPublicKey",
          "type": "bytes"
        }
      ],
      "name": "setDONPublicKey",
      "outputs": [],
      "stateMutability": "nonpayable",
      "type": "function"
    },
    {
      "inputs": [
        {
          "internalType": "address",
          "name": "node",
          "type": "address"
        },
        {
          "internalType": "bytes",
          "name": "publicKey",
          "type": "bytes"
        }
      ],
      "name": "setNodePublicKey",
      "outputs": [],
      "stateMutability": "nonpayable",
      "type": "function"
    },
    {
      "inputs": [
        {
          "internalType": "address",
          "name": "registryAddress",
          "type": "address"
        }
      ],
      "name": "setRegistry",
      "outputs": [],
      "stateMutability": "nonpayable",
      "type": "function"
    },
    {
      "inputs": [
        {
          "internalType": "address",
          "name": "to",
          "type": "address"
        }
      ],
      "name": "transferOwnership",
      "outputs": [],
      "stateMutability": "nonpayable",
      "type": "function"
    },
    {
      "inputs": [
        {
          "internalType": "bytes32[3]",
          "name": "reportContext",
          "type": "bytes32[3]"
        },
        {
          "internalType": "bytes",
          "name": "report",
          "type": "bytes"
        },
        {
          "internalType": "bytes32[]",
          "name": "rs",
          "type": "bytes32[]"
        },
        {
          "internalType": "bytes32[]",
          "name": "ss",
          "type": "bytes32[]"
        },
        {
          "internalType": "bytes32",
          "name": "rawVs",
          "type": "bytes32"
        }
      ],
      "name": "transmit",
      "outputs": [],
      "stateMutability": "nonpayable",
      "type": "function"
    },
    {
      "inputs": [],
      "name": "transmitters",
      "outputs": [
        {
          "internalType": "address[]",
          "name": "",
          "type": "address[]"
        }
      ],
      "stateMutability": "view",
      "type": "function"
    },
    {
      "inputs": [],
      "name": "typeAndVersion",
      "outputs": [
        {
          "internalType": "string",
          "name": "",
          "type": "string"
        }
      ],
      "stateMutability": "pure",
      "type": "function"
    }
  ],
  "bytecode": "0x60a06040523480156200001157600080fd5b50600133806000816200006b5760405162461bcd60e51b815260206004820152601860248201527f43616e6e6f7420736574206f776e657220746f207a65726f000000000000000060448201526064015b60405180910390fd5b600080546001600160a01b0319166001600160a01b03848116919091179091558116156200009e576200009e81620000bc565b505050151560f81b6080526008805460ff1916600117905562000168565b6001600160a01b038116331415620001175760405162461bcd60e51b815260206004820152601760248201527f43616e6e6f74207472616e7366657220746f2073656c66000000000000000000604482015260640162000062565b600180546001600160a01b0319166001600160a01b0383811691821790925560008054604051929316917fed8889f560326eb138920d842192f0eb3dd22b4f139c87a2c57538e05bae12789190a350565b60805160f81c6135d562000187600039600061107c01526135d56000f3fe608060405234801561001057600080fd5b50600436106101ae5760003560e01c806381ff7048116100ee578063b1dc65a411610097578063e3d0e71211610071578063e3d0e712146103c6578063f1e14a21146103d9578063f2fde38b146103f0578063fa00763a1461040357600080fd5b8063b1dc65a41461037b578063d227d2451461038e578063d328a91e146103be57600080fd5b8063a91ee0dc116100c8578063a91ee0dc14610327578063a98eb2061461033a578063afcb95d71461035b57600080fd5b806381ff7048146102de5780638da5cb5b1461030e57806391bb64eb1461031f57600080fd5b80634dcef4041161015b57806379ba50971161013557806379ba5097146102a85780637f15e166146102b057806380756031146102c357806381411834146102d657600080fd5b80634dcef4041461025a578063533989871461026d5780635ab1bd531461028357600080fd5b80632408afaa1161018c5780632408afaa1461021b57806326ceabac146102305780634b4fa0c11461024357600080fd5b806303e1bf23146101b3578063110254c8146101c8578063181f5a77146101d0575b600080fd5b6101c66101c1366004612a36565b610416565b005b6101c661062e565b60408051808201909152601581527f46756e6374696f6e734f7261636c6520302e302e30000000000000000000000060208201525b6040516102129190613259565b60405180910390f35b6102236106c0565b60405161021291906130e1565b6101c661023e3660046129a7565b610722565b60085460ff165b6040519015158152602001610212565b6101c6610268366004612a36565b610784565b610275610883565b6040516102129291906130f4565b600d546001600160a01b03165b6040516001600160a01b039091168152602001610212565b6101c6610a5e565b6101c66102be366004612dbc565b610b14565b6101c66102d13660046129e1565b610b64565b610223610bdb565b6004546002546040805163ffffffff80851682526401000000009094049093166020840152820152606001610212565b6000546001600160a01b0316610290565b6101c6610c3b565b6101c66103353660046129a7565b610cc3565b61034d610348366004612eaf565b610d14565b604051908152602001610212565b604080516001815260006020820181905291810191909152606001610212565b6101c6610389366004612be6565b610f3c565b6103a161039c366004612eaf565b611548565b6040516bffffffffffffffffffffffff9091168152602001610212565b610205611675565b6101c66103d4366004612b19565b6116fe565b6103a16103e7366004612df2565b60009392505050565b6101c66103fe3660046129a7565b611e54565b61024a6104113660046129a7565b611e65565b6000546001600160a01b031633146104415760405163ad77f06160e01b815260040160405180910390fd5b8061045f576040516375158c3b60e01b815260040160405180910390fd5b60005b818110156105ee57600061049e8484848181106104815761048161355e565b905060200201602081019061049691906129a7565b600990611e90565b905080156105db5760005b600b548110156105d9578484848181106104c5576104c561355e565b90506020020160208101906104da91906129a7565b6001600160a01b0316600b82815481106104f6576104f661355e565b6000918252602090912001546001600160a01b031614156105c757600b80546000919061052590600190613499565b815481106105355761053561355e565b600091825260209091200154600b80546001600160a01b0390921692508291869081106105645761056461355e565b9060005260206000200160006101000a8154816001600160a01b0302191690836001600160a01b03160217905550600b8054806105a3576105a3613548565b600082815260209020810160001990810180546001600160a01b0319169055019055505b806105d1816134eb565b9150506104a9565b505b50806105e6816134eb565b915050610462565b507ff263cfb3e4298332e776194610cf9fdc09ccb3ada8b9aa39764d882e11fbf0a082823360405161062293929190613081565b60405180910390a15050565b6000546001600160a01b031633146106595760405163ad77f06160e01b815260040160405180910390fd5b60085460ff161561067d5760405163a741a04560e01b815260040160405180910390fd5b6008805460ff191660011790556040513381527fae51766a982895b0c444fc99fc1a560762b464d709e6c78376c85617f7eeb5ce906020015b60405180910390a1565b6060600b80548060200260200160405190810160405280929190818152602001828054801561071857602002820191906000526020600020905b81546001600160a01b031681526001909101906020018083116106fa575b5050505050905090565b6000546001600160a01b03163314806107435750336001600160a01b038216145b6107605760405163ed6dd19b60e01b815260040160405180910390fd5b6001600160a01b0381166000908152600e6020526040812061078191612668565b50565b6000546001600160a01b031633146107af5760405163ad77f06160e01b815260040160405180910390fd5b806107cd576040516375158c3b60e01b815260040160405180910390fd5b60005b818110156105ee57600061080c8484848181106107ef576107ef61355e565b905060200201602081019061080491906129a7565b600990611eac565b9050801561087057600b8484848181106108285761082861355e565b905060200201602081019061083d91906129a7565b81546001810183556000928352602090922090910180546001600160a01b0319166001600160a01b039092169190911790555b508061087b816134eb565b9150506107d0565b6060806000306001600160a01b031663814118346040518163ffffffff1660e01b815260040160006040518083038186803b1580156108c157600080fd5b505afa1580156108d5573d6000803e3d6000fd5b505050506040513d6000823e601f3d908101601f191682016040526108fd9190810190612a78565b90506000815167ffffffffffffffff81111561091b5761091b613574565b60405190808252806020026020018201604052801561094e57816020015b60608152602001906001900390816109395790505b50905060005b8251811015610a5457600e60008483815181106109735761097361355e565b60200260200101516001600160a01b03166001600160a01b0316815260200190815260200160002080546109a6906134b0565b80601f01602080910402602001604051908101604052809291908181526020018280546109d2906134b0565b8015610a1f5780601f106109f457610100808354040283529160200191610a1f565b820191906000526020600020905b815481529060010190602001808311610a0257829003601f168201915b5050505050828281518110610a3657610a3661355e565b60200260200101819052508080610a4c906134eb565b915050610954565b5090939092509050565b6001546001600160a01b03163314610abd5760405162461bcd60e51b815260206004820152601660248201527f4d7573742062652070726f706f736564206f776e65720000000000000000000060448201526064015b60405180910390fd5b60008054336001600160a01b0319808316821784556001805490911690556040516001600160a01b0390921692909183917f8be0079c531659141344cd1fd0a4f28419497f9722a3daafe3b4186f6b6457e091a350565b610b1c611ec1565b80610b53576040517f4f42be3d00000000000000000000000000000000000000000000000000000000815260040160405180910390fd5b610b5f600c83836126a2565b505050565b6000546001600160a01b0316331480610b955750610b8133611f1d565b8015610b955750336001600160a01b038416145b610bb25760405163ed6dd19b60e01b815260040160405180910390fd5b6001600160a01b0383166000908152600e60205260409020610bd59083836126a2565b50505050565b60606007805480602002602001604051908101604052809291908181526020018280548015610718576020028201919060005260206000209081546001600160a01b031681526001909101906020018083116106fa575050505050905090565b6000546001600160a01b03163314610c665760405163ad77f06160e01b815260040160405180910390fd5b60085460ff16610c895760405163a741a04560e01b815260040160405180910390fd5b6008805460ff191690556040513381527fea3828816a323b8d7ff49d755efd105e7719166d6c76fad97a28eee5eccc3d9a906020016106b6565b610ccb611ec1565b6001600160a01b038116610cf257604051632717f8c960e21b815260040160405180910390fd5b600d80546001600160a01b0319166001600160a01b0392909216919091179055565b600d546000906001600160a01b0316610d4057604051632717f8c960e21b815260040160405180910390fd5b610d48611ffc565b83610d7e576040517ec1cfc000000000000000000000000000000000000000000000000000000000815260040160405180910390fd5b600d546040805160808101825267ffffffffffffffff8916815233602082015263ffffffff8616818301526060810185905290517fa9d03c050000000000000000000000000000000000000000000000000000000081526000926001600160a01b03169163a9d03c0591610df9918a918a91906004016131fd565b602060405180830381600087803b158015610e1357600080fd5b505af1158015610e27573d6000803e3d6000fd5b505050506040513d601f19601f82011682018060405250810190610e4b9190612da3565b600d546040517fb2a489ff00000000000000000000000000000000000000000000000000000000815267ffffffffffffffff8a16600482015291925082917fa1ec73989d79578cd6f67d4f593ac3e0a4d1020e5c0164db52108d7ff785406c91339132918c916001600160a01b039091169063b2a489ff9060240160206040518083038186803b158015610ede57600080fd5b505afa158015610ef2573d6000803e3d6000fd5b505050506040513d601f19601f82011682018060405250810190610f1691906129c4565b8b8b604051610f2a96959493929190613030565b60405180910390a29695505050505050565b60005a604080516020601f8b018190048102820181019092528981529192508a3591818c013591610f9291849163ffffffff851691908e908e908190840183828082843760009201919091525061203b92505050565b610faf5760405163017c6c6560e31b815260040160405180910390fd5b6040805183815262ffffff600884901c1660208201527fb04e63db38c49950639fa09d29872f21f5d49d614f3a969d8adf3d4b52e41a62910160405180910390a16040805160608101825260025480825260035460ff8082166020850152610100909104169282019290925290831461106a5760405162461bcd60e51b815260206004820152601560248201527f636f6e666967446967657374206d69736d6174636800000000000000000000006044820152606401610ab4565b6110788b8b8b8b8b8b612044565b60007f0000000000000000000000000000000000000000000000000000000000000000156110d5576002826020015183604001516110b6919061341f565b6110c09190613458565b6110cb90600161341f565b60ff1690506110eb565b60208201516110e590600161341f565b60ff1690505b88811461113a5760405162461bcd60e51b815260206004820152601a60248201527f77726f6e67206e756d626572206f66207369676e6174757265730000000000006044820152606401610ab4565b8887146111895760405162461bcd60e51b815260206004820152601e60248201527f7369676e617475726573206f7574206f6620726567697374726174696f6e00006044820152606401610ab4565b3360009081526005602090815260408083208151808301909252805460ff808216845292939192918401916101009091041660028111156111cc576111cc613532565b60028111156111dd576111dd613532565b90525090506002816020015160028111156111fa576111fa613532565b14801561123457506007816000015160ff168154811061121c5761121c61355e565b6000918252602090912001546001600160a01b031633145b6112805760405162461bcd60e51b815260206004820152601860248201527f756e617574686f72697a6564207472616e736d697474657200000000000000006044820152606401610ab4565b505050505061128d612726565b6000808a8a6040516112a0929190613020565b6040519081900381206112b7918e90602001613004565b60408051601f198184030181528282528051602091820120838301909252600080845290830152915060005b8981101561152a5760006001848984602081106113025761130261355e565b61130f91901a601b61341f565b8e8e868181106113215761132161355e565b905060200201358d8d8781811061133a5761133a61355e565b9050602002013560405160008152602001604052604051611377949392919093845260ff9290921660208401526040830152606082015260800190565b6020604051602081039080840390855afa158015611399573d6000803e3d6000fd5b505060408051601f198101516001600160a01b03811660009081526005602090815290849020838501909452835460ff808216855292965092945084019161010090041660028111156113ee576113ee613532565b60028111156113ff576113ff613532565b905250925060018360200151600281111561141c5761141c613532565b146114695760405162461bcd60e51b815260206004820152601e60248201527f61646472657373206e6f7420617574686f72697a656420746f207369676e00006044820152606401610ab4565b8251600090879060ff16601f81106114835761148361355e565b60200201516001600160a01b0316146114de5760405162461bcd60e51b815260206004820152601460248201527f6e6f6e2d756e69717565207369676e61747572650000000000000000000000006044820152606401610ab4565b8086846000015160ff16601f81106114f8576114f861355e565b6001600160a01b03909216602092909202015261151660018661341f565b94505080611523906134eb565b90506112e3565b50505061153b833383858e8e6120e1565b5050505050505050505050565b600d546000906001600160a01b031661157457604051632717f8c960e21b815260040160405180910390fd5b6040805160808101825267ffffffffffffffff8816815233602082015263ffffffff8516918101919091526060810183905260008080600d546040517fa1a6d04100000000000000000000000000000000000000000000000000000000815263ffffffff89166004820152602481018890526bffffffffffffffffffffffff8086166044830152831660648201529192506001600160a01b03169063a1a6d0419060840160206040518083038186803b15801561163057600080fd5b505afa158015611644573d6000803e3d6000fd5b505050506040513d601f19601f820116820180604052508101906116689190612f1c565b9998505050505050505050565b6060600c8054611684906134b0565b80601f01602080910402602001604051908101604052809291908181526020018280546116b0906134b0565b80156107185780601f106116d257610100808354040283529160200191610718565b820191906000526020600020905b8154815290600101906020018083116116e057509395945050505050565b855185518560ff16601f8311156117575760405162461bcd60e51b815260206004820152601060248201527f746f6f206d616e79207369676e657273000000000000000000000000000000006044820152606401610ab4565b600081116117a75760405162461bcd60e51b815260206004820152601260248201527f66206d75737420626520706f73697469766500000000000000000000000000006044820152606401610ab4565b81831461181b5760405162461bcd60e51b8152602060048201526024808201527f6f7261636c6520616464726573736573206f7574206f6620726567697374726160448201527f74696f6e000000000000000000000000000000000000000000000000000000006064820152608401610ab4565b61182681600361347a565b83116118745760405162461bcd60e51b815260206004820152601860248201527f6661756c74792d6f7261636c65206620746f6f206869676800000000000000006044820152606401610ab4565b61187c611ec1565b6040805160c0810182528a8152602081018a905260ff8916918101919091526060810187905267ffffffffffffffff8616608082015260a081018590525b600654156119cc576006546000906118d490600190613499565b90506000600682815481106118eb576118eb61355e565b6000918252602082200154600780546001600160a01b03909216935090849081106119185761191861355e565b60009182526020808320909101546001600160a01b03858116845260059092526040808420805461ffff199081169091559290911680845292208054909116905560068054919250908061196e5761196e613548565b600082815260209020810160001990810180546001600160a01b031916905501905560078054806119a1576119a1613548565b600082815260209020810160001990810180546001600160a01b0319169055019055506118ba915050565b60005b815151811015611d0957600060056000846000015184815181106119f5576119f561355e565b6020908102919091018101516001600160a01b0316825281019190915260400160002054610100900460ff166002811115611a3257611a32613532565b14611a7f5760405162461bcd60e51b815260206004820152601760248201527f7265706561746564207369676e657220616464726573730000000000000000006044820152606401610ab4565b6040805180820190915260ff82168152600160208201528251805160059160009185908110611ab057611ab061355e565b6020908102919091018101516001600160a01b03168252818101929092526040016000208251815460ff90911660ff19821681178355928401519192839161ffff191617610100836002811115611b0957611b09613532565b021790555060009150611b199050565b6005600084602001518481518110611b3357611b3361355e565b6020908102919091018101516001600160a01b0316825281019190915260400160002054610100900460ff166002811115611b7057611b70613532565b14611bbd5760405162461bcd60e51b815260206004820152601c60248201527f7265706561746564207472616e736d69747465722061646472657373000000006044820152606401610ab4565b6040805180820190915260ff821681526020810160028152506005600084602001518481518110611bf057611bf061355e565b6020908102919091018101516001600160a01b03168252818101929092526040016000208251815460ff90911660ff19821681178355928401519192839161ffff191617610100836002811115611c4957611c49613532565b021790555050825180516006925083908110611c6757611c6761355e565b602090810291909101810151825460018101845560009384529282902090920180546001600160a01b0319166001600160a01b039093169290921790915582015180516007919083908110611cbe57611cbe61355e565b60209081029190910181015182546001810184556000938452919092200180546001600160a01b0319166001600160a01b03909216919091179055611d02816134eb565b90506119cf565b5060408101516003805460ff191660ff9092169190911790556004805467ffffffff0000000019811664010000000063ffffffff438116820292831785559083048116936001939092600092611d669286929082169116176133f7565b92506101000a81548163ffffffff021916908363ffffffff160217905550611dc54630600460009054906101000a900463ffffffff1663ffffffff16856000015186602001518760400151886060015189608001518a60a001516123cd565b6002819055825180516003805460ff9092166101000261ff001990921691909117905560045460208501516040808701516060880151608089015160a08a015193517f1591690b8638f5fb2dbec82ac741805ac5da8b45dc5263f4875b0496fdce4e0598611e47988b98919763ffffffff909216969095919491939192613304565b60405180910390a161153b565b611e5c611ec1565b6107818161245a565b6000611e7360085460ff1690565b611e7f57506001919050565b611e8a600983612504565b92915050565b6000611ea5836001600160a01b038416612526565b9392505050565b6000611ea5836001600160a01b038416612619565b6000546001600160a01b03163314611f1b5760405162461bcd60e51b815260206004820152601660248201527f4f6e6c792063616c6c61626c65206279206f776e6572000000000000000000006044820152606401610ab4565b565b600080306001600160a01b031663814118346040518163ffffffff1660e01b815260040160006040518083038186803b158015611f5957600080fd5b505afa158015611f6d573d6000803e3d6000fd5b505050506040513d6000823e601f3d908101601f19168201604052611f959190810190612a78565b905060005b8151811015611ff257836001600160a01b0316828281518110611fbf57611fbf61355e565b60200260200101516001600160a01b03161415611fe0575060019392505050565b80611fea816134eb565b915050611f9a565b5060009392505050565b61200532611e65565b611f1b576040517f0809490800000000000000000000000000000000000000000000000000000000815260040160405180910390fd5b60019392505050565b600061205182602061347a565b61205c85602061347a565b612068886101446133df565b61207291906133df565b61207c91906133df565b6120879060006133df565b90503681146120d85760405162461bcd60e51b815260206004820152601860248201527f63616c6c64617461206c656e677468206d69736d6174636800000000000000006044820152606401610ab4565b50505050505050565b600d546001600160a01b031661210a57604051632717f8c960e21b815260040160405180910390fd5b6060808061211a84860186612c9d565b82519295509093509150158061213257508151835114155b8061213f57508051835114155b1561215d5760405163017c6c6560e31b815260040160405180910390fd5b600083515a61216c908c613499565b6121769190613444565b905060005b845181101561153b57600d5485516001600160a01b0390911690630739e4f1908790849081106121ad576121ad61355e565b60200260200101518684815181106121c7576121c761355e565b60200260200101518685815181106121e1576121e161355e565b60200260200101518e8d8f895a6040518963ffffffff1660e01b8152600401612211989796959493929190613166565b602060405180830381600087803b15801561222b57600080fd5b505af192505050801561225b575060408051601f3d908101601f1916820190925261225891810190612d81565b60015b6122e6573d808015612289576040519150601f19603f3d011682016040523d82523d6000602084013e61228e565b606091505b508582815181106122a1576122a161355e565b60200260200101517fe0b838ffe6ee22a0d3acf19a85db6a41b34a1ab739e2d6c759a2e42d95bdccb2826040516122d89190613259565b60405180910390a2506123bb565b8015612337578582815181106122fe576122fe61355e565b60200260200101517f9e9bc7616d42c2835d05ae617e508454e63b30b934be8aa932ebc125e0e58a6460405160405180910390a26123b9565b8582815181106123495761234961355e565b60200260200101517fb2931868c372fe17a25643458add467d60ec5c51125a99b7309f41f5bcd2da6c6040516123b09060208082526011908201527f6572726f7220696e2063616c6c6261636b000000000000000000000000000000604082015260600190565b60405180910390a25b505b806123c5816134eb565b91505061217b565b6000808a8a8a8a8a8a8a8a8a6040516020016123f19998979695949392919061326c565b60408051601f1981840301815291905280516020909101207dffffffffffffffffffffffffffffffffffffffffffffffffffffffffffff167e01000000000000000000000000000000000000000000000000000000000000179150509998505050505050505050565b6001600160a01b0381163314156124b35760405162461bcd60e51b815260206004820152601760248201527f43616e6e6f74207472616e7366657220746f2073656c660000000000000000006044820152606401610ab4565b600180546001600160a01b0319166001600160a01b0383811691821790925560008054604051929316917fed8889f560326eb138920d842192f0eb3dd22b4f139c87a2c57538e05bae12789190a350565b6001600160a01b03811660009081526001830160205260408120541515611ea5565b6000818152600183016020526040812054801561260f57600061254a600183613499565b855490915060009061255e90600190613499565b90508181146125c357600086600001828154811061257e5761257e61355e565b90600052602060002001549050808760000184815481106125a1576125a161355e565b6000918252602080832090910192909255918252600188019052604090208390555b85548690806125d4576125d4613548565b600190038181906000526020600020016000905590558560010160008681526020019081526020016000206000905560019350505050611e8a565b6000915050611e8a565b600081815260018301602052604081205461266057508154600181810184556000848152602080822090930184905584548482528286019093526040902091909155611e8a565b506000611e8a565b508054612674906134b0565b6000825580601f10612684575050565b601f0160209004906000526020600020908101906107819190612745565b8280546126ae906134b0565b90600052602060002090601f0160209004810192826126d05760008555612716565b82601f106126e95782800160ff19823516178555612716565b82800160010185558215612716579182015b828111156127165782358255916020019190600101906126fb565b50612722929150612745565b5090565b604051806103e00160405280601f906020820280368337509192915050565b5b808211156127225760008155600101612746565b60008083601f84011261276c57600080fd5b50813567ffffffffffffffff81111561278457600080fd5b6020830191508360208260051b850101111561279f57600080fd5b9250929050565b600082601f8301126127b757600080fd5b813560206127cc6127c7836133bb565b61338a565b80838252828201915082860187848660051b89010111156127ec57600080fd5b60005b858110156128145781356128028161358a565b845292840192908401906001016127ef565b5090979650505050505050565b600082601f83011261283257600080fd5b813560206128426127c7836133bb565b80838252828201915082860187848660051b890101111561286257600080fd5b6000805b868110156128a557823567ffffffffffffffff811115612884578283fd5b6128928b88838d01016128f5565b8652509385019391850191600101612866565b509198975050505050505050565b60008083601f8401126128c557600080fd5b50813567ffffffffffffffff8111156128dd57600080fd5b60208301915083602082850101111561279f57600080fd5b600082601f83011261290657600080fd5b813567ffffffffffffffff81111561292057612920613574565b612933601f8201601f191660200161338a565b81815284602083860101111561294857600080fd5b816020850160208301376000918101602001919091529392505050565b803563ffffffff8116811461297957600080fd5b919050565b803567ffffffffffffffff8116811461297957600080fd5b803560ff8116811461297957600080fd5b6000602082840312156129b957600080fd5b8135611ea58161358a565b6000602082840312156129d657600080fd5b8151611ea58161358a565b6000806000604084860312156129f657600080fd5b8335612a018161358a565b9250602084013567ffffffffffffffff811115612a1d57600080fd5b612a29868287016128b3565b9497909650939450505050565b60008060208385031215612a4957600080fd5b823567ffffffffffffffff811115612a6057600080fd5b612a6c8582860161275a565b90969095509350505050565b60006020808385031215612a8b57600080fd5b825167ffffffffffffffff811115612aa257600080fd5b8301601f81018513612ab357600080fd5b8051612ac16127c7826133bb565b80828252848201915084840188868560051b8701011115612ae157600080fd5b600094505b83851015612b0d578051612af98161358a565b835260019490940193918501918501612ae6565b50979650505050505050565b60008060008060008060c08789031215612b3257600080fd5b863567ffffffffffffffff80821115612b4a57600080fd5b612b568a838b016127a6565b97506020890135915080821115612b6c57600080fd5b612b788a838b016127a6565b9650612b8660408a01612996565b95506060890135915080821115612b9c57600080fd5b612ba88a838b016128f5565b9450612bb660808a0161297e565b935060a0890135915080821115612bcc57600080fd5b50612bd989828a016128f5565b9150509295509295509295565b60008060008060008060008060e0898b031215612c0257600080fd5b606089018a811115612c1357600080fd5b8998503567ffffffffffffffff80821115612c2d57600080fd5b612c398c838d016128b3565b909950975060808b0135915080821115612c5257600080fd5b612c5e8c838d0161275a565b909750955060a08b0135915080821115612c7757600080fd5b50612c848b828c0161275a565b999c989b50969995989497949560c00135949350505050565b600080600060608486031215612cb257600080fd5b833567ffffffffffffffff80821115612cca57600080fd5b818601915086601f830112612cde57600080fd5b81356020612cee6127c7836133bb565b8083825282820191508286018b848660051b8901011115612d0e57600080fd5b600096505b84871015612d31578035835260019690960195918301918301612d13565b5097505087013592505080821115612d4857600080fd5b612d5487838801612821565b93506040860135915080821115612d6a57600080fd5b50612d7786828701612821565b9150509250925092565b600060208284031215612d9357600080fd5b81518015158114611ea557600080fd5b600060208284031215612db557600080fd5b5051919050565b60008060208385031215612dcf57600080fd5b823567ffffffffffffffff811115612de657600080fd5b612a6c858286016128b3565b600080600083850360a0811215612e0857600080fd5b843567ffffffffffffffff80821115612e2057600080fd5b612e2c888389016128b3565b90965094508491506080601f1984011215612e4657600080fd5b60405192506080830191508282108183111715612e6557612e65613574565b50604052612e756020860161297e565b81526040850135612e858161358a565b6020820152612e9660608601612965565b6040820152608094909401356060850152509093909250565b600080600080600060808688031215612ec757600080fd5b612ed08661297e565b9450602086013567ffffffffffffffff811115612eec57600080fd5b612ef8888289016128b3565b9095509350612f0b905060408701612965565b949793965091946060013592915050565b600060208284031215612f2e57600080fd5b81516bffffffffffffffffffffffff81168114611ea557600080fd5b600081518084526020808501945080840160005b83811015612f835781516001600160a01b031687529582019590820190600101612f5e565b509495945050505050565b81835281816020850137506000828201602090810191909152601f909101601f19169091010190565b6000815180845260005b81811015612fdd57602081850181015186830182015201612fc1565b81811115612fef576000602083870101525b50601f01601f19169290920160200192915050565b8281526060826020830137600060809190910190815292915050565b8183823760009101908152919050565b60006001600160a01b038089168352808816602084015267ffffffffffffffff8716604084015280861660608401525060a0608083015261307560a083018486612f8e565b98975050505050505050565b6040808252810183905260008460608301825b868110156130c45782356130a78161358a565b6001600160a01b0316825260209283019290910190600101613094565b5080925050506001600160a01b0383166020830152949350505050565b602081526000611ea56020830184612f4a565b6040815260006131076040830185612f4a565b6020838203818501528185518084528284019150828160051b85010183880160005b8381101561315757601f19878403018552613145838351612fb7565b94860194925090850190600101613129565b50909998505050505050505050565b60006104c08a8352602081818501526131818285018c612fb7565b91508382036040850152613195828b612fb7565b92506001600160a01b0391508189166060850152608084018860005b601f8110156131d05781518516835291830191908301906001016131b1565b50505050506131e561046083018660ff169052565b6104808201939093526104a001529695505050505050565b60a08152600061321160a083018587612f8e565b905067ffffffffffffffff83511660208301526001600160a01b03602084015116604083015263ffffffff604084015116606083015260608301516080830152949350505050565b602081526000611ea56020830184612fb7565b60006101208b83526001600160a01b038b16602084015267ffffffffffffffff808b1660408501528160608501526132a68285018b612f4a565b915083820360808501526132ba828a612f4a565b915060ff881660a085015283820360c08501526132d78288612fb7565b90861660e085015283810361010085015290506132f48185612fb7565b9c9b505050505050505050505050565b600061012063ffffffff808d1684528b6020850152808b166040850152508060608401526133348184018a612f4a565b905082810360808401526133488189612f4a565b905060ff871660a084015282810360c08401526133658187612fb7565b905067ffffffffffffffff851660e08401528281036101008401526132f48185612fb7565b604051601f8201601f1916810167ffffffffffffffff811182821017156133b3576133b3613574565b604052919050565b600067ffffffffffffffff8211156133d5576133d5613574565b5060051b60200190565b600082198211156133f2576133f2613506565b500190565b600063ffffffff80831681851680830382111561341657613416613506565b01949350505050565b600060ff821660ff84168060ff0382111561343c5761343c613506565b019392505050565b6000826134535761345361351c565b500490565b600060ff83168061346b5761346b61351c565b8060ff84160491505092915050565b600081600019048311821515161561349457613494613506565b500290565b6000828210156134ab576134ab613506565b500390565b600181811c908216806134c457607f821691505b602082108114156134e557634e487b7160e01b600052602260045260246000fd5b50919050565b60006000198214156134ff576134ff613506565b5060010190565b634e487b7160e01b600052601160045260246000fd5b634e487b7160e01b600052601260045260246000fd5b634e487b7160e01b600052602160045260246000fd5b634e487b7160e01b600052603160045260246000fd5b634e487b7160e01b600052603260045260246000fd5b634e487b7160e01b600052604160045260246000fd5b6001600160a01b038116811461078157600080fdfea2646970667358221220319538f74db030b002d14d8ecc1feaebddc810b7fa79dfea53c662e80212264c64736f6c63430008070033",
  "linkReferences": {},
  "deployedLinkReferences": {}
}